{
  "_format": "hh-sol-artifact-1",
  "contractName": "PropertyToken",
  "sourceName": "contracts/PropertyToken.sol",
  "abi": [
    {
      "inputs": [
        {
          "internalType": "string",
          "name": "name",
          "type": "string"
        },
        {
          "internalType": "string",
          "name": "symbol",
          "type": "string"
        },
        {
          "internalType": "uint256",
          "name": "initialSupply",
          "type": "uint256"
        },
        {
          "internalType": "address",
          "name": "owner",
          "type": "address"
        }
      ],
      "stateMutability": "nonpayable",
      "type": "constructor"
    },
    {
      "inputs": [
        {
          "internalType": "address",
          "name": "spender",
          "type": "address"
        },
        {
          "internalType": "uint256",
          "name": "allowance",
          "type": "uint256"
        },
        {
          "internalType": "uint256",
          "name": "needed",
          "type": "uint256"
        }
      ],
      "name": "ERC20InsufficientAllowance",
      "type": "error"
    },
    {
      "inputs": [
        {
          "internalType": "address",
          "name": "sender",
          "type": "address"
        },
        {
          "internalType": "uint256",
          "name": "balance",
          "type": "uint256"
        },
        {
          "internalType": "uint256",
          "name": "needed",
          "type": "uint256"
        }
      ],
      "name": "ERC20InsufficientBalance",
      "type": "error"
    },
    {
      "inputs": [
        {
          "internalType": "address",
          "name": "approver",
          "type": "address"
        }
      ],
      "name": "ERC20InvalidApprover",
      "type": "error"
    },
    {
      "inputs": [
        {
          "internalType": "address",
          "name": "receiver",
          "type": "address"
        }
      ],
      "name": "ERC20InvalidReceiver",
      "type": "error"
    },
    {
      "inputs": [
        {
          "internalType": "address",
          "name": "sender",
          "type": "address"
        }
      ],
      "name": "ERC20InvalidSender",
      "type": "error"
    },
    {
      "inputs": [
        {
          "internalType": "address",
          "name": "spender",
          "type": "address"
        }
      ],
      "name": "ERC20InvalidSpender",
      "type": "error"
    },
    {
      "inputs": [
        {
          "internalType": "address",
          "name": "owner",
          "type": "address"
        }
      ],
      "name": "OwnableInvalidOwner",
      "type": "error"
    },
    {
      "inputs": [
        {
          "internalType": "address",
          "name": "account",
          "type": "address"
        }
      ],
      "name": "OwnableUnauthorizedAccount",
      "type": "error"
    },
    {
      "anonymous": false,
      "inputs": [
        {
          "indexed": true,
          "internalType": "address",
          "name": "owner",
          "type": "address"
        },
        {
          "indexed": true,
          "internalType": "address",
          "name": "spender",
          "type": "address"
        },
        {
          "indexed": false,
          "internalType": "uint256",
          "name": "value",
          "type": "uint256"
        }
      ],
      "name": "Approval",
      "type": "event"
    },
    {
      "anonymous": false,
      "inputs": [
        {
          "indexed": true,
          "internalType": "address",
          "name": "previousOwner",
          "type": "address"
        },
        {
          "indexed": true,
          "internalType": "address",
          "name": "newOwner",
          "type": "address"
        }
      ],
      "name": "OwnershipTransferred",
      "type": "event"
    },
    {
      "anonymous": false,
      "inputs": [
        {
          "indexed": true,
          "internalType": "address",
          "name": "from",
          "type": "address"
        },
        {
          "indexed": true,
          "internalType": "address",
          "name": "to",
          "type": "address"
        },
        {
          "indexed": false,
          "internalType": "uint256",
          "name": "value",
          "type": "uint256"
        }
      ],
      "name": "Transfer",
      "type": "event"
    },
    {
      "inputs": [
        {
          "internalType": "address",
          "name": "owner",
          "type": "address"
        },
        {
          "internalType": "address",
          "name": "spender",
          "type": "address"
        }
      ],
      "name": "allowance",
      "outputs": [
        {
          "internalType": "uint256",
          "name": "",
          "type": "uint256"
        }
      ],
      "stateMutability": "view",
      "type": "function"
    },
    {
      "inputs": [
        {
          "internalType": "address",
          "name": "spender",
          "type": "address"
        },
        {
          "internalType": "uint256",
          "name": "value",
          "type": "uint256"
        }
      ],
      "name": "approve",
      "outputs": [
        {
          "internalType": "bool",
          "name": "",
          "type": "bool"
        }
      ],
      "stateMutability": "nonpayable",
      "type": "function"
    },
    {
      "inputs": [
        {
          "internalType": "address",
          "name": "account",
          "type": "address"
        }
      ],
      "name": "balanceOf",
      "outputs": [
        {
          "internalType": "uint256",
          "name": "",
          "type": "uint256"
        }
      ],
      "stateMutability": "view",
      "type": "function"
    },
    {
      "inputs": [],
      "name": "decimals",
      "outputs": [
        {
          "internalType": "uint8",
          "name": "",
          "type": "uint8"
        }
      ],
      "stateMutability": "view",
      "type": "function"
    },
    {
      "inputs": [],
      "name": "getAllTokenHolders",
      "outputs": [
        {
          "internalType": "address[]",
          "name": "",
          "type": "address[]"
        }
      ],
      "stateMutability": "view",
      "type": "function"
    },
    {
      "inputs": [],
      "name": "getCurrentTokenHolders",
      "outputs": [
        {
          "internalType": "address[]",
          "name": "",
          "type": "address[]"
        }
      ],
      "stateMutability": "view",
      "type": "function"
    },
    {
      "inputs": [],
      "name": "name",
      "outputs": [
        {
          "internalType": "string",
          "name": "",
          "type": "string"
        }
      ],
      "stateMutability": "view",
      "type": "function"
    },
    {
      "inputs": [],
      "name": "owner",
      "outputs": [
        {
          "internalType": "address",
          "name": "",
          "type": "address"
        }
      ],
      "stateMutability": "view",
      "type": "function"
    },
    {
      "inputs": [],
      "name": "renounceOwnership",
      "outputs": [],
      "stateMutability": "nonpayable",
      "type": "function"
    },
    {
      "inputs": [],
      "name": "symbol",
      "outputs": [
        {
          "internalType": "string",
          "name": "",
          "type": "string"
        }
      ],
      "stateMutability": "view",
      "type": "function"
    },
    {
      "inputs": [],
      "name": "totalSupply",
      "outputs": [
        {
          "internalType": "uint256",
          "name": "",
          "type": "uint256"
        }
      ],
      "stateMutability": "view",
      "type": "function"
    },
    {
      "inputs": [
        {
          "internalType": "address",
          "name": "to",
          "type": "address"
        },
        {
          "internalType": "uint256",
          "name": "value",
          "type": "uint256"
        }
      ],
      "name": "transfer",
      "outputs": [
        {
          "internalType": "bool",
          "name": "",
          "type": "bool"
        }
      ],
      "stateMutability": "nonpayable",
      "type": "function"
    },
    {
      "inputs": [
        {
          "internalType": "address",
          "name": "from",
          "type": "address"
        },
        {
          "internalType": "address",
          "name": "to",
          "type": "address"
        },
        {
          "internalType": "uint256",
          "name": "value",
          "type": "uint256"
        }
      ],
      "name": "transferFrom",
      "outputs": [
        {
          "internalType": "bool",
          "name": "",
          "type": "bool"
        }
      ],
      "stateMutability": "nonpayable",
      "type": "function"
    },
    {
      "inputs": [
        {
          "internalType": "address",
          "name": "newOwner",
          "type": "address"
        }
      ],
      "name": "transferOwnership",
      "outputs": [],
      "stateMutability": "nonpayable",
      "type": "function"
    }
  ],
  "bytecode": "0x60806040523480156200001157600080fd5b5060405162002aba38038062002aba833981810160405281019062000037919062000ac0565b80848481600390816200004b919062000db1565b5080600490816200005d919062000db1565b505050600073ffffffffffffffffffffffffffffffffffffffff168173ffffffffffffffffffffffffffffffffffffffff1603620000d55760006040517f1e4fbdf7000000000000000000000000000000000000000000000000000000008152600401620000cc919062000ea9565b60405180910390fd5b620000e6816200013e60201b60201c565b506200012381620000fc6200020460201b60201c565b600a6200010a919062001056565b84620001179190620010a7565b6200020d60201b60201c565b62000134816200029a60201b60201c565b5050505062001198565b6000600560009054906101000a900473ffffffffffffffffffffffffffffffffffffffff16905081600560006101000a81548173ffffffffffffffffffffffffffffffffffffffff021916908373ffffffffffffffffffffffffffffffffffffffff1602179055508173ffffffffffffffffffffffffffffffffffffffff168173ffffffffffffffffffffffffffffffffffffffff167f8be0079c531659141344cd1fd0a4f28419497f9722a3daafe3b4186f6b6457e060405160405180910390a35050565b60006012905090565b600073ffffffffffffffffffffffffffffffffffffffff168273ffffffffffffffffffffffffffffffffffffffff1603620002825760006040517fec442f0500000000000000000000000000000000000000000000000000000000815260040162000279919062000ea9565b60405180910390fd5b62000296600083836200040360201b60201c565b5050565b600760008273ffffffffffffffffffffffffffffffffffffffff1673ffffffffffffffffffffffffffffffffffffffff16815260200190815260200160002060009054906101000a900460ff1662000400576006819080600181540180825580915050600190039060005260206000200160009091909190916101000a81548173ffffffffffffffffffffffffffffffffffffffff021916908373ffffffffffffffffffffffffffffffffffffffff1602179055506001600760008373ffffffffffffffffffffffffffffffffffffffff1673ffffffffffffffffffffffffffffffffffffffff16815260200190815260200160002060006101000a81548160ff0219169083151502179055506001600860008373ffffffffffffffffffffffffffffffffffffffff1673ffffffffffffffffffffffffffffffffffffffff16815260200190815260200160002060006101000a81548160ff0219169083151502179055505b50565b620004168383836200061560201b60201c565b600073ffffffffffffffffffffffffffffffffffffffff168273ffffffffffffffffffffffffffffffffffffffff16141580156200049e5750600760008373ffffffffffffffffffffffffffffffffffffffff1673ffffffffffffffffffffffffffffffffffffffff16815260200190815260200160002060009054906101000a900460ff16155b15620004b657620004b5826200029a60201b60201c565b5b600073ffffffffffffffffffffffffffffffffffffffff168373ffffffffffffffffffffffffffffffffffffffff1614158015620005045750600062000502846200084560201b60201c565b145b1562000563576000600860008573ffffffffffffffffffffffffffffffffffffffff1673ffffffffffffffffffffffffffffffffffffffff16815260200190815260200160002060006101000a81548160ff0219169083151502179055505b600073ffffffffffffffffffffffffffffffffffffffff168273ffffffffffffffffffffffffffffffffffffffff1614158015620005b157506000620005af836200084560201b60201c565b115b1562000610576001600860008473ffffffffffffffffffffffffffffffffffffffff1673ffffffffffffffffffffffffffffffffffffffff16815260200190815260200160002060006101000a81548160ff0219169083151502179055505b505050565b600073ffffffffffffffffffffffffffffffffffffffff168373ffffffffffffffffffffffffffffffffffffffff16036200066b5780600260008282546200065e9190620010f2565b9250508190555062000741565b60008060008573ffffffffffffffffffffffffffffffffffffffff1673ffffffffffffffffffffffffffffffffffffffff16815260200190815260200160002054905081811015620006fa578381836040517fe450d38c000000000000000000000000000000000000000000000000000000008152600401620006f1939291906200113e565b60405180910390fd5b8181036000808673ffffffffffffffffffffffffffffffffffffffff1673ffffffffffffffffffffffffffffffffffffffff16815260200190815260200160002081905550505b600073ffffffffffffffffffffffffffffffffffffffff168273ffffffffffffffffffffffffffffffffffffffff16036200078c5780600260008282540392505081905550620007d9565b806000808473ffffffffffffffffffffffffffffffffffffffff1673ffffffffffffffffffffffffffffffffffffffff168152602001908152602001600020600082825401925050819055505b8173ffffffffffffffffffffffffffffffffffffffff168373ffffffffffffffffffffffffffffffffffffffff167fddf252ad1be2c89b69c2b068fc378daa952ba7f163c4a11628f55a4df523b3ef836040516200083891906200117b565b60405180910390a3505050565b60008060008373ffffffffffffffffffffffffffffffffffffffff1673ffffffffffffffffffffffffffffffffffffffff168152602001908152602001600020549050919050565b6000604051905090565b600080fd5b600080fd5b600080fd5b600080fd5b6000601f19601f8301169050919050565b7f4e487b7100000000000000000000000000000000000000000000000000000000600052604160045260246000fd5b620008f682620008ab565b810181811067ffffffffffffffff82111715620009185762000917620008bc565b5b80604052505050565b60006200092d6200088d565b90506200093b8282620008eb565b919050565b600067ffffffffffffffff8211156200095e576200095d620008bc565b5b6200096982620008ab565b9050602081019050919050565b60005b838110156200099657808201518184015260208101905062000979565b60008484015250505050565b6000620009b9620009b38462000940565b62000921565b905082815260208101848484011115620009d857620009d7620008a6565b5b620009e584828562000976565b509392505050565b600082601f83011262000a055762000a04620008a1565b5b815162000a17848260208601620009a2565b91505092915050565b6000819050919050565b62000a358162000a20565b811462000a4157600080fd5b50565b60008151905062000a558162000a2a565b92915050565b600073ffffffffffffffffffffffffffffffffffffffff82169050919050565b600062000a888262000a5b565b9050919050565b62000a9a8162000a7b565b811462000aa657600080fd5b50565b60008151905062000aba8162000a8f565b92915050565b6000806000806080858703121562000add5762000adc62000897565b5b600085015167ffffffffffffffff81111562000afe5762000afd6200089c565b5b62000b0c87828801620009ed565b945050602085015167ffffffffffffffff81111562000b305762000b2f6200089c565b5b62000b3e87828801620009ed565b935050604062000b518782880162000a44565b925050606062000b648782880162000aa9565b91505092959194509250565b600081519050919050565b7f4e487b7100000000000000000000000000000000000000000000000000000000600052602260045260246000fd5b6000600282049050600182168062000bc357607f821691505b60208210810362000bd95762000bd862000b7b565b5b50919050565b60008190508160005260206000209050919050565b60006020601f8301049050919050565b600082821b905092915050565b60006008830262000c437fffffffffffffffffffffffffffffffffffffffffffffffffffffffffffffffff8262000c04565b62000c4f868362000c04565b95508019841693508086168417925050509392505050565b6000819050919050565b600062000c9262000c8c62000c868462000a20565b62000c67565b62000a20565b9050919050565b6000819050919050565b62000cae8362000c71565b62000cc662000cbd8262000c99565b84845462000c11565b825550505050565b600090565b62000cdd62000cce565b62000cea81848462000ca3565b505050565b5b8181101562000d125762000d0660008262000cd3565b60018101905062000cf0565b5050565b601f82111562000d615762000d2b8162000bdf565b62000d368462000bf4565b8101602085101562000d46578190505b62000d5e62000d558562000bf4565b83018262000cef565b50505b505050565b600082821c905092915050565b600062000d866000198460080262000d66565b1980831691505092915050565b600062000da1838362000d73565b9150826002028217905092915050565b62000dbc8262000b70565b67ffffffffffffffff81111562000dd85762000dd7620008bc565b5b62000de4825462000baa565b62000df182828562000d16565b600060209050601f83116001811462000e29576000841562000e14578287015190505b62000e20858262000d93565b86555062000e90565b601f19841662000e398662000bdf565b60005b8281101562000e635784890151825560018201915060208501945060208101905062000e3c565b8683101562000e83578489015162000e7f601f89168262000d73565b8355505b6001600288020188555050505b505050505050565b62000ea38162000a7b565b82525050565b600060208201905062000ec0600083018462000e98565b92915050565b7f4e487b7100000000000000000000000000000000000000000000000000000000600052601160045260246000fd5b60008160011c9050919050565b6000808291508390505b600185111562000f545780860481111562000f2c5762000f2b62000ec6565b5b600185161562000f3c5780820291505b808102905062000f4c8562000ef5565b945062000f0c565b94509492505050565b60008262000f6f576001905062001042565b8162000f7f576000905062001042565b816001811462000f98576002811462000fa35762000fd9565b600191505062001042565b60ff84111562000fb85762000fb762000ec6565b5b8360020a91508482111562000fd25762000fd162000ec6565b5b5062001042565b5060208310610133831016604e8410600b8410161715620010135782820a9050838111156200100d576200100c62000ec6565b5b62001042565b62001022848484600162000f02565b925090508184048111156200103c576200103b62000ec6565b5b81810290505b9392505050565b600060ff82169050919050565b6000620010638262000a20565b9150620010708362001049565b92506200109f7fffffffffffffffffffffffffffffffffffffffffffffffffffffffffffffffff848462000f5d565b905092915050565b6000620010b48262000a20565b9150620010c18362000a20565b9250828202620010d18162000a20565b91508282048414831517620010eb57620010ea62000ec6565b5b5092915050565b6000620010ff8262000a20565b91506200110c8362000a20565b925082820190508082111562001127576200112662000ec6565b5b92915050565b620011388162000a20565b82525050565b600060608201905062001155600083018662000e98565b6200116460208301856200112d565b6200117360408301846200112d565b949350505050565b60006020820190506200119260008301846200112d565b92915050565b61191280620011a86000396000f3fe608060405234801561001057600080fd5b50600436106100ea5760003560e01c8063715018a61161008c57806395d89b411161006657806395d89b411461023d578063a9059cbb1461025b578063dd62ed3e1461028b578063f2fde38b146102bb576100ea565b8063715018a6146101f75780637dc56e1d146102015780638da5cb5b1461021f576100ea565b806323b872dd116100c857806323b872dd1461015b578063313ce5671461018b57806332fb56ca146101a957806370a08231146101c7576100ea565b806306fdde03146100ef578063095ea7b31461010d57806318160ddd1461013d575b600080fd5b6100f76102d7565b60405161010491906113e0565b60405180910390f35b6101276004803603810190610122919061149b565b610369565b60405161013491906114f6565b60405180910390f35b61014561038c565b6040516101529190611520565b60405180910390f35b6101756004803603810190610170919061153b565b610396565b60405161018291906114f6565b60405180910390f35b6101936103c5565b6040516101a091906115aa565b60405180910390f35b6101b16103ce565b6040516101be9190611683565b60405180910390f35b6101e160048036038101906101dc91906116a5565b61045c565b6040516101ee9190611520565b60405180910390f35b6101ff6104a4565b005b6102096104b8565b6040516102169190611683565b60405180910390f35b610227610724565b60405161023491906116e1565b60405180910390f35b61024561074e565b60405161025291906113e0565b60405180910390f35b6102756004803603810190610270919061149b565b6107e0565b60405161028291906114f6565b60405180910390f35b6102a560048036038101906102a091906116fc565b610803565b6040516102b29190611520565b60405180910390f35b6102d560048036038101906102d091906116a5565b61088a565b005b6060600380546102e69061176b565b80601f01602080910402602001604051908101604052809291908181526020018280546103129061176b565b801561035f5780601f106103345761010080835404028352916020019161035f565b820191906000526020600020905b81548152906001019060200180831161034257829003601f168201915b5050505050905090565b600080610374610910565b9050610381818585610918565b600191505092915050565b6000600254905090565b6000806103a1610910565b90506103ae85828561092a565b6103b98585856109bf565b60019150509392505050565b60006012905090565b6060600680548060200260200160405190810160405280929190818152602001828054801561045257602002820191906000526020600020905b8160009054906101000a900473ffffffffffffffffffffffffffffffffffffffff1673ffffffffffffffffffffffffffffffffffffffff1681526020019060010190808311610408575b5050505050905090565b60008060008373ffffffffffffffffffffffffffffffffffffffff1673ffffffffffffffffffffffffffffffffffffffff168152602001908152602001600020549050919050565b6104ac610ab3565b6104b66000610b3a565b565b60606000805b60068054905081101561057d5760086000600683815481106104e3576104e261179c565b5b9060005260206000200160009054906101000a900473ffffffffffffffffffffffffffffffffffffffff1673ffffffffffffffffffffffffffffffffffffffff1673ffffffffffffffffffffffffffffffffffffffff16815260200190815260200160002060009054906101000a900460ff161561056a578180610566906117fa565b9250505b8080610575906117fa565b9150506104be565b5060008167ffffffffffffffff81111561059a57610599611842565b5b6040519080825280602002602001820160405280156105c85781602001602082028036833780820191505090505b5090506000805b60068054905081101561071a5760086000600683815481106105f4576105f361179c565b5b9060005260206000200160009054906101000a900473ffffffffffffffffffffffffffffffffffffffff1673ffffffffffffffffffffffffffffffffffffffff1673ffffffffffffffffffffffffffffffffffffffff16815260200190815260200160002060009054906101000a900460ff161561070757600681815481106106805761067f61179c565b5b9060005260206000200160009054906101000a900473ffffffffffffffffffffffffffffffffffffffff168383815181106106be576106bd61179c565b5b602002602001019073ffffffffffffffffffffffffffffffffffffffff16908173ffffffffffffffffffffffffffffffffffffffff16815250508180610703906117fa565b9250505b8080610712906117fa565b9150506105cf565b5081935050505090565b6000600560009054906101000a900473ffffffffffffffffffffffffffffffffffffffff16905090565b60606004805461075d9061176b565b80601f01602080910402602001604051908101604052809291908181526020018280546107899061176b565b80156107d65780601f106107ab576101008083540402835291602001916107d6565b820191906000526020600020905b8154815290600101906020018083116107b957829003601f168201915b5050505050905090565b6000806107eb610910565b90506107f88185856109bf565b600191505092915050565b6000600160008473ffffffffffffffffffffffffffffffffffffffff1673ffffffffffffffffffffffffffffffffffffffff16815260200190815260200160002060008373ffffffffffffffffffffffffffffffffffffffff1673ffffffffffffffffffffffffffffffffffffffff16815260200190815260200160002054905092915050565b610892610ab3565b600073ffffffffffffffffffffffffffffffffffffffff168173ffffffffffffffffffffffffffffffffffffffff16036109045760006040517f1e4fbdf70000000000000000000000000000000000000000000000000000000081526004016108fb91906116e1565b60405180910390fd5b61090d81610b3a565b50565b600033905090565b6109258383836001610c00565b505050565b60006109368484610803565b90507fffffffffffffffffffffffffffffffffffffffffffffffffffffffffffffffff8110156109b957818110156109a9578281836040517ffb8f41b20000000000000000000000000000000000000000000000000000000081526004016109a093929190611871565b60405180910390fd5b6109b884848484036000610c00565b5b50505050565b600073ffffffffffffffffffffffffffffffffffffffff168373ffffffffffffffffffffffffffffffffffffffff1603610a315760006040517f96c6fd1e000000000000000000000000000000000000000000000000000000008152600401610a2891906116e1565b60405180910390fd5b600073ffffffffffffffffffffffffffffffffffffffff168273ffffffffffffffffffffffffffffffffffffffff1603610aa35760006040517fec442f05000000000000000000000000000000000000000000000000000000008152600401610a9a91906116e1565b60405180910390fd5b610aae838383610dd7565b505050565b610abb610910565b73ffffffffffffffffffffffffffffffffffffffff16610ad9610724565b73ffffffffffffffffffffffffffffffffffffffff1614610b3857610afc610910565b6040517f118cdaa7000000000000000000000000000000000000000000000000000000008152600401610b2f91906116e1565b60405180910390fd5b565b6000600560009054906101000a900473ffffffffffffffffffffffffffffffffffffffff16905081600560006101000a81548173ffffffffffffffffffffffffffffffffffffffff021916908373ffffffffffffffffffffffffffffffffffffffff1602179055508173ffffffffffffffffffffffffffffffffffffffff168173ffffffffffffffffffffffffffffffffffffffff167f8be0079c531659141344cd1fd0a4f28419497f9722a3daafe3b4186f6b6457e060405160405180910390a35050565b600073ffffffffffffffffffffffffffffffffffffffff168473ffffffffffffffffffffffffffffffffffffffff1603610c725760006040517fe602df05000000000000000000000000000000000000000000000000000000008152600401610c6991906116e1565b60405180910390fd5b600073ffffffffffffffffffffffffffffffffffffffff168373ffffffffffffffffffffffffffffffffffffffff1603610ce45760006040517f94280d62000000000000000000000000000000000000000000000000000000008152600401610cdb91906116e1565b60405180910390fd5b81600160008673ffffffffffffffffffffffffffffffffffffffff1673ffffffffffffffffffffffffffffffffffffffff16815260200190815260200160002060008573ffffffffffffffffffffffffffffffffffffffff1673ffffffffffffffffffffffffffffffffffffffff168152602001908152602001600020819055508015610dd1578273ffffffffffffffffffffffffffffffffffffffff168473ffffffffffffffffffffffffffffffffffffffff167f8c5be1e5ebec7d5bd14f71427d1e84f3dd0314c0f7b2291e5b200ac8c7c3b92584604051610dc89190611520565b60405180910390a35b50505050565b610de2838383610fc3565b600073ffffffffffffffffffffffffffffffffffffffff168273ffffffffffffffffffffffffffffffffffffffff1614158015610e695750600760008373ffffffffffffffffffffffffffffffffffffffff1673ffffffffffffffffffffffffffffffffffffffff16815260200190815260200160002060009054906101000a900460ff16155b15610e7857610e77826111e8565b5b600073ffffffffffffffffffffffffffffffffffffffff168373ffffffffffffffffffffffffffffffffffffffff1614158015610ebd57506000610ebb8461045c565b145b15610f1b576000600860008573ffffffffffffffffffffffffffffffffffffffff1673ffffffffffffffffffffffffffffffffffffffff16815260200190815260200160002060006101000a81548160ff0219169083151502179055505b600073ffffffffffffffffffffffffffffffffffffffff168273ffffffffffffffffffffffffffffffffffffffff1614158015610f6057506000610f5e8361045c565b115b15610fbe576001600860008473ffffffffffffffffffffffffffffffffffffffff1673ffffffffffffffffffffffffffffffffffffffff16815260200190815260200160002060006101000a81548160ff0219169083151502179055505b505050565b600073ffffffffffffffffffffffffffffffffffffffff168373ffffffffffffffffffffffffffffffffffffffff160361101557806002600082825461100991906118a8565b925050819055506110e8565b60008060008573ffffffffffffffffffffffffffffffffffffffff1673ffffffffffffffffffffffffffffffffffffffff168152602001908152602001600020549050818110156110a1578381836040517fe450d38c00000000000000000000000000000000000000000000000000000000815260040161109893929190611871565b60405180910390fd5b8181036000808673ffffffffffffffffffffffffffffffffffffffff1673ffffffffffffffffffffffffffffffffffffffff16815260200190815260200160002081905550505b600073ffffffffffffffffffffffffffffffffffffffff168273ffffffffffffffffffffffffffffffffffffffff1603611131578060026000828254039250508190555061117e565b806000808473ffffffffffffffffffffffffffffffffffffffff1673ffffffffffffffffffffffffffffffffffffffff168152602001908152602001600020600082825401925050819055505b8173ffffffffffffffffffffffffffffffffffffffff168373ffffffffffffffffffffffffffffffffffffffff167fddf252ad1be2c89b69c2b068fc378daa952ba7f163c4a11628f55a4df523b3ef836040516111db9190611520565b60405180910390a3505050565b600760008273ffffffffffffffffffffffffffffffffffffffff1673ffffffffffffffffffffffffffffffffffffffff16815260200190815260200160002060009054906101000a900460ff1661134d576006819080600181540180825580915050600190039060005260206000200160009091909190916101000a81548173ffffffffffffffffffffffffffffffffffffffff021916908373ffffffffffffffffffffffffffffffffffffffff1602179055506001600760008373ffffffffffffffffffffffffffffffffffffffff1673ffffffffffffffffffffffffffffffffffffffff16815260200190815260200160002060006101000a81548160ff0219169083151502179055506001600860008373ffffffffffffffffffffffffffffffffffffffff1673ffffffffffffffffffffffffffffffffffffffff16815260200190815260200160002060006101000a81548160ff0219169083151502179055505b50565b600081519050919050565b600082825260208201905092915050565b60005b8381101561138a57808201518184015260208101905061136f565b60008484015250505050565b6000601f19601f8301169050919050565b60006113b282611350565b6113bc818561135b565b93506113cc81856020860161136c565b6113d581611396565b840191505092915050565b600060208201905081810360008301526113fa81846113a7565b905092915050565b600080fd5b600073ffffffffffffffffffffffffffffffffffffffff82169050919050565b600061143282611407565b9050919050565b61144281611427565b811461144d57600080fd5b50565b60008135905061145f81611439565b92915050565b6000819050919050565b61147881611465565b811461148357600080fd5b50565b6000813590506114958161146f565b92915050565b600080604083850312156114b2576114b1611402565b5b60006114c085828601611450565b92505060206114d185828601611486565b9150509250929050565b60008115159050919050565b6114f0816114db565b82525050565b600060208201905061150b60008301846114e7565b92915050565b61151a81611465565b82525050565b60006020820190506115356000830184611511565b92915050565b60008060006060848603121561155457611553611402565b5b600061156286828701611450565b935050602061157386828701611450565b925050604061158486828701611486565b9150509250925092565b600060ff82169050919050565b6115a48161158e565b82525050565b60006020820190506115bf600083018461159b565b92915050565b600081519050919050565b600082825260208201905092915050565b6000819050602082019050919050565b6115fa81611427565b82525050565b600061160c83836115f1565b60208301905092915050565b6000602082019050919050565b6000611630826115c5565b61163a81856115d0565b9350611645836115e1565b8060005b8381101561167657815161165d8882611600565b975061166883611618565b925050600181019050611649565b5085935050505092915050565b6000602082019050818103600083015261169d8184611625565b905092915050565b6000602082840312156116bb576116ba611402565b5b60006116c984828501611450565b91505092915050565b6116db81611427565b82525050565b60006020820190506116f660008301846116d2565b92915050565b6000806040838503121561171357611712611402565b5b600061172185828601611450565b925050602061173285828601611450565b9150509250929050565b7f4e487b7100000000000000000000000000000000000000000000000000000000600052602260045260246000fd5b6000600282049050600182168061178357607f821691505b6020821081036117965761179561173c565b5b50919050565b7f4e487b7100000000000000000000000000000000000000000000000000000000600052603260045260246000fd5b7f4e487b7100000000000000000000000000000000000000000000000000000000600052601160045260246000fd5b600061180582611465565b91507fffffffffffffffffffffffffffffffffffffffffffffffffffffffffffffffff8203611837576118366117cb565b5b600182019050919050565b7f4e487b7100000000000000000000000000000000000000000000000000000000600052604160045260246000fd5b600060608201905061188660008301866116d2565b6118936020830185611511565b6118a06040830184611511565b949350505050565b60006118b382611465565b91506118be83611465565b92508282019050808211156118d6576118d56117cb565b5b9291505056fea2646970667358221220628f2395f95031f2e54415f60afb030e9d1bf74003e505e02c56b42ff7b9bc9664736f6c63430008150033",
  "linkReferences": {},
  "deployedLinkReferences": {}
}