{
  "_format": "hh-sol-artifact-1",
  "contractName": "PropertyRental",
  "sourceName": "contracts/PropertyRental.sol",
  "abi": [
    {
      "inputs": [
        {
          "internalType": "address",
          "name": "_propertyManagerAddress",
          "type": "address"
        }
      ],
      "stateMutability": "nonpayable",
      "type": "constructor"
    },
    {
      "anonymous": false,
      "inputs": [
        {
          "indexed": true,
          "internalType": "address",
          "name": "propertyTokenAddress",
          "type": "address"
        },
        {
          "indexed": false,
          "internalType": "uint256",
          "name": "weeklyRate",
          "type": "uint256"
        }
      ],
      "name": "PropertyListedForRent",
      "type": "event"
    },
    {
      "anonymous": false,
      "inputs": [
        {
          "indexed": true,
          "internalType": "address",
          "name": "propertyTokenAddress",
          "type": "address"
        },
        {
          "indexed": true,
          "internalType": "address",
          "name": "renter",
          "type": "address"
        },
        {
          "indexed": false,
          "internalType": "uint256",
          "name": "amount",
          "type": "uint256"
        }
      ],
      "name": "PropertyRented",
      "type": "event"
    },
    {
      "anonymous": false,
      "inputs": [
        {
          "indexed": true,
          "internalType": "address",
          "name": "propertyTokenAddress",
          "type": "address"
        },
        {
          "indexed": false,
          "internalType": "uint256",
          "name": "totalRent",
          "type": "uint256"
        },
        {
          "indexed": false,
          "internalType": "uint256",
          "name": "tokenHolderCount",
          "type": "uint256"
        }
      ],
      "name": "RentDistributed",
      "type": "event"
    },
    {
      "anonymous": false,
      "inputs": [
        {
          "indexed": true,
          "internalType": "address",
          "name": "propertyTokenAddress",
          "type": "address"
        }
      ],
      "name": "RentalListingCancelled",
      "type": "event"
    },
    {
      "anonymous": false,
      "inputs": [
        {
          "indexed": true,
          "internalType": "address",
          "name": "propertyTokenAddress",
          "type": "address"
        },
        {
          "indexed": false,
          "internalType": "uint256",
          "name": "newWeeklyRate",
          "type": "uint256"
        }
      ],
      "name": "RentalListingUpdated",
      "type": "event"
    },
    {
      "inputs": [
        {
          "internalType": "address",
          "name": "propertyTokenAddress",
          "type": "address"
        }
      ],
      "name": "cancelRentalListing",
      "outputs": [],
      "stateMutability": "nonpayable",
      "type": "function"
    },
    {
      "inputs": [],
      "name": "getActiveRentalListings",
      "outputs": [
        {
          "components": [
            {
              "internalType": "address",
              "name": "propertyTokenAddress",
              "type": "address"
            },
            {
              "internalType": "uint256",
              "name": "weeklyRate",
              "type": "uint256"
            },
            {
              "internalType": "bool",
              "name": "isActive",
              "type": "bool"
            }
          ],
          "internalType": "struct PropertyRental.RentalListing[]",
          "name": "",
          "type": "tuple[]"
        }
      ],
      "stateMutability": "view",
      "type": "function"
    },
    {
      "inputs": [],
      "name": "getAllListedProperties",
      "outputs": [
        {
          "internalType": "address[]",
          "name": "",
          "type": "address[]"
        }
      ],
      "stateMutability": "view",
      "type": "function"
    },
    {
      "inputs": [
        {
          "internalType": "address",
          "name": "propertyTokenAddress",
          "type": "address"
        },
        {
          "internalType": "uint256",
          "name": "weeklyRate",
          "type": "uint256"
        }
      ],
      "name": "listPropertyForRent",
      "outputs": [],
      "stateMutability": "nonpayable",
      "type": "function"
    },
    {
      "inputs": [
        {
          "internalType": "uint256",
          "name": "",
          "type": "uint256"
        }
      ],
      "name": "listedProperties",
      "outputs": [
        {
          "internalType": "address",
          "name": "",
          "type": "address"
        }
      ],
      "stateMutability": "view",
      "type": "function"
    },
    {
      "inputs": [],
      "name": "propertyManager",
      "outputs": [
        {
          "internalType": "contract PropertyManager",
          "name": "",
          "type": "address"
        }
      ],
      "stateMutability": "view",
      "type": "function"
    },
    {
      "inputs": [
        {
          "internalType": "address",
          "name": "propertyTokenAddress",
          "type": "address"
        }
      ],
      "name": "rentProperty",
      "outputs": [],
      "stateMutability": "payable",
      "type": "function"
    },
    {
      "inputs": [
        {
          "internalType": "address",
          "name": "",
          "type": "address"
        }
      ],
      "name": "rentalListings",
      "outputs": [
        {
          "internalType": "address",
          "name": "propertyTokenAddress",
          "type": "address"
        },
        {
          "internalType": "uint256",
          "name": "weeklyRate",
          "type": "uint256"
        },
        {
          "internalType": "bool",
          "name": "isActive",
          "type": "bool"
        }
      ],
      "stateMutability": "view",
      "type": "function"
    },
    {
      "inputs": [
        {
          "internalType": "address",
          "name": "propertyTokenAddress",
          "type": "address"
        },
        {
          "internalType": "uint256",
          "name": "newWeeklyRate",
          "type": "uint256"
        }
      ],
      "name": "updateRentalListing",
      "outputs": [],
      "stateMutability": "nonpayable",
      "type": "function"
    }
  ],
  "bytecode": "0x60806040523480156200001157600080fd5b5060405162002688380380620026888339818101604052810190620000379190620000e9565b80600360006101000a81548173ffffffffffffffffffffffffffffffffffffffff021916908373ffffffffffffffffffffffffffffffffffffffff160217905550506200011b565b600080fd5b600073ffffffffffffffffffffffffffffffffffffffff82169050919050565b6000620000b18262000084565b9050919050565b620000c381620000a4565b8114620000cf57600080fd5b50565b600081519050620000e381620000b8565b92915050565b6000602082840312156200010257620001016200007f565b5b60006200011284828501620000d2565b91505092915050565b61255d806200012b6000396000f3fe6080604052600436106100865760003560e01c80638c7929f5116100595780638c7929f514610147578063916ee16d14610184578063a1e2305f146101a0578063d6233eaf146101cb578063e7356cb5146101f457610086565b80633ade41e11461008b5780634913fcba146100b45780637c8dcf47146100df578063883643cc14610108575b600080fd5b34801561009757600080fd5b506100b260048036038101906100ad91906114cf565b61021f565b005b3480156100c057600080fd5b506100c96103d8565b6040516100d69190611630565b60405180910390f35b3480156100eb57600080fd5b506101066004803603810190610101919061167e565b6106af565b005b34801561011457600080fd5b5061012f600480360381019061012a91906114cf565b610b50565b60405161013e939291906116eb565b60405180910390f35b34801561015357600080fd5b5061016e60048036038101906101699190611722565b610ba7565b60405161017b919061174f565b60405180910390f35b61019e600480360381019061019991906114cf565b610be6565b005b3480156101ac57600080fd5b506101b5610d50565b6040516101c29190611819565b60405180910390f35b3480156101d757600080fd5b506101f260048036038101906101ed919061167e565b610dde565b005b34801561020057600080fd5b50610209610fd2565b604051610216919061189a565b60405180910390f35b60008060008373ffffffffffffffffffffffffffffffffffffffff1673ffffffffffffffffffffffffffffffffffffffff16815260200190815260200160002090508060020160009054906101000a900460ff166102b2576040517f08c379a00000000000000000000000000000000000000000000000000000000081526004016102a990611938565b60405180910390fd5b600082905060008173ffffffffffffffffffffffffffffffffffffffff166370a08231336040518263ffffffff1660e01b81526004016102f2919061174f565b602060405180830381865afa15801561030f573d6000803e3d6000fd5b505050506040513d601f19601f82011682018060405250810190610333919061196d565b11610373576040517f08c379a000000000000000000000000000000000000000000000000000000000815260040161036a90611a0c565b60405180910390fd5b60008260020160006101000a81548160ff0219169083151502179055508273ffffffffffffffffffffffffffffffffffffffff167ff1a14a8d735c1da3ad087935cc97f29643f334d9e91202bc99d155dc242aaa8860405160405180910390a2505050565b60606000805b60018054905081101561049f576000806001838154811061040257610401611a2c565b5b9060005260206000200160009054906101000a900473ffffffffffffffffffffffffffffffffffffffff1673ffffffffffffffffffffffffffffffffffffffff1673ffffffffffffffffffffffffffffffffffffffff16815260200190815260200160002060020160009054906101000a900460ff161561048c57818061048890611a8a565b9250505b808061049790611a8a565b9150506103de565b5060008167ffffffffffffffff8111156104bc576104bb611ad2565b5b6040519080825280602002602001820160405280156104f557816020015b6104e2611424565b8152602001906001900390816104da5790505b5090506000805b6001805490508110156106a55760006001828154811061051f5761051e611a2c565b5b9060005260206000200160009054906101000a900473ffffffffffffffffffffffffffffffffffffffff1690506000808273ffffffffffffffffffffffffffffffffffffffff1673ffffffffffffffffffffffffffffffffffffffff16815260200190815260200160002060020160009054906101000a900460ff1615610691576000808273ffffffffffffffffffffffffffffffffffffffff1673ffffffffffffffffffffffffffffffffffffffff1681526020019081526020016000206040518060600160405290816000820160009054906101000a900473ffffffffffffffffffffffffffffffffffffffff1673ffffffffffffffffffffffffffffffffffffffff1673ffffffffffffffffffffffffffffffffffffffff168152602001600182015481526020016002820160009054906101000a900460ff16151515158152505084848151811061067757610676611a2c565b5b6020026020010181905250828061068d90611a8a565b9350505b50808061069d90611a8a565b9150506104fc565b5081935050505090565b600081116106f2576040517f08c379a00000000000000000000000000000000000000000000000000000000081526004016106e990611b73565b60405180910390fd5b600080600360009054906101000a900473ffffffffffffffffffffffffffffffffffffffff1673ffffffffffffffffffffffffffffffffffffffff16633d51402c6040518163ffffffff1660e01b8152600401600060405180830381865afa158015610762573d6000803e3d6000fd5b505050506040513d6000823e3d601f19601f8201168201806040525081019061078b9190611e66565b905060005b8151811015610806578473ffffffffffffffffffffffffffffffffffffffff168282815181106107c3576107c2611a2c565b5b60200260200101516020015173ffffffffffffffffffffffffffffffffffffffff16036107f35760019250610806565b80806107fe90611a8a565b915050610790565b5081610847576040517f08c379a000000000000000000000000000000000000000000000000000000000815260040161083e90611f21565b60405180910390fd5b600084905060008173ffffffffffffffffffffffffffffffffffffffff166370a08231336040518263ffffffff1660e01b8152600401610887919061174f565b602060405180830381865afa1580156108a4573d6000803e3d6000fd5b505050506040513d601f19601f820116820180604052508101906108c8919061196d565b11610908576040517f08c379a00000000000000000000000000000000000000000000000000000000081526004016108ff90611fb3565b60405180910390fd5b60405180606001604052808673ffffffffffffffffffffffffffffffffffffffff168152602001858152602001600115158152506000808773ffffffffffffffffffffffffffffffffffffffff1673ffffffffffffffffffffffffffffffffffffffff16815260200190815260200160002060008201518160000160006101000a81548173ffffffffffffffffffffffffffffffffffffffff021916908373ffffffffffffffffffffffffffffffffffffffff1602179055506020820151816001015560408201518160020160006101000a81548160ff021916908315150217905550905050600260008673ffffffffffffffffffffffffffffffffffffffff1673ffffffffffffffffffffffffffffffffffffffff16815260200190815260200160002060009054906101000a900460ff16610afb576001859080600181540180825580915050600190039060005260206000200160009091909190916101000a81548173ffffffffffffffffffffffffffffffffffffffff021916908373ffffffffffffffffffffffffffffffffffffffff1602179055506001600260008773ffffffffffffffffffffffffffffffffffffffff1673ffffffffffffffffffffffffffffffffffffffff16815260200190815260200160002060006101000a81548160ff0219169083151502179055505b8473ffffffffffffffffffffffffffffffffffffffff167f38d009b22bc0f28b593a213496006b7c9b1e40e9f718b35c50ffbeaa87d8df6685604051610b419190611fd3565b60405180910390a25050505050565b60006020528060005260406000206000915090508060000160009054906101000a900473ffffffffffffffffffffffffffffffffffffffff16908060010154908060020160009054906101000a900460ff16905083565b60018181548110610bb757600080fd5b906000526020600020016000915054906101000a900473ffffffffffffffffffffffffffffffffffffffff1681565b60008060008373ffffffffffffffffffffffffffffffffffffffff1673ffffffffffffffffffffffffffffffffffffffff16815260200190815260200160002090508060020160009054906101000a900460ff16610c79576040517f08c379a0000000000000000000000000000000000000000000000000000000008152600401610c7090612060565b60405180910390fd5b8060010154341015610cc0576040517f08c379a0000000000000000000000000000000000000000000000000000000008152600401610cb7906120cc565b60405180910390fd5b60008160020160006101000a81548160ff021916908315150217905550610ce78234610ff8565b3373ffffffffffffffffffffffffffffffffffffffff168273ffffffffffffffffffffffffffffffffffffffff167f4fc3a676fdeef8973dc185dc49c43ba446e6c7e00c459a429b5dee5d6b92907f34604051610d449190611fd3565b60405180910390a35050565b60606001805480602002602001604051908101604052809291908181526020018280548015610dd457602002820191906000526020600020905b8160009054906101000a900473ffffffffffffffffffffffffffffffffffffffff1673ffffffffffffffffffffffffffffffffffffffff1681526020019060010190808311610d8a575b5050505050905090565b60008111610e21576040517f08c379a0000000000000000000000000000000000000000000000000000000008152600401610e1890611b73565b60405180910390fd5b60008060008473ffffffffffffffffffffffffffffffffffffffff1673ffffffffffffffffffffffffffffffffffffffff16815260200190815260200160002090508060020160009054906101000a900460ff16610eb4576040517f08c379a0000000000000000000000000000000000000000000000000000000008152600401610eab90611938565b60405180910390fd5b600083905060008173ffffffffffffffffffffffffffffffffffffffff166370a08231336040518263ffffffff1660e01b8152600401610ef4919061174f565b602060405180830381865afa158015610f11573d6000803e3d6000fd5b505050506040513d601f19601f82011682018060405250810190610f35919061196d565b11610f75576040517f08c379a0000000000000000000000000000000000000000000000000000000008152600401610f6c9061215e565b60405180910390fd5b8282600101819055508373ffffffffffffffffffffffffffffffffffffffff167f4fbe9cbb7f3d5a5bede53be4a3b01e8d2e5c795cdf5b54fb76b30a406a4e533484604051610fc49190611fd3565b60405180910390a250505050565b600360009054906101000a900473ffffffffffffffffffffffffffffffffffffffff1681565b600082905060008173ffffffffffffffffffffffffffffffffffffffff166318160ddd6040518163ffffffff1660e01b8152600401602060405180830381865afa15801561104a573d6000803e3d6000fd5b505050506040513d601f19601f8201168201806040525081019061106e919061196d565b9050600081116110b3576040517f08c379a00000000000000000000000000000000000000000000000000000000081526004016110aa906121f0565b60405180910390fd5b60008273ffffffffffffffffffffffffffffffffffffffff16637dc56e1d6040518163ffffffff1660e01b8152600401600060405180830381865afa158015611100573d6000803e3d6000fd5b505050506040513d6000823e3d601f19601f8201168201806040525081019061112991906122d3565b9050600081511161116f576040517f08c379a00000000000000000000000000000000000000000000000000000000081526004016111669061238e565b60405180910390fd5b60008085905060005b835181101561131557600084828151811061119657611195611a2c565b5b6020026020010151905060008773ffffffffffffffffffffffffffffffffffffffff166370a08231836040518263ffffffff1660e01b81526004016111db919061174f565b602060405180830381865afa1580156111f8573d6000803e3d6000fd5b505050506040513d601f19601f8201168201806040525081019061121c919061196d565b9050600081111561130057600087828b61123691906123ae565b611240919061241f565b905089818761124f9190612450565b111561126457858a6112619190612484565b90505b60008111156112fe5760008373ffffffffffffffffffffffffffffffffffffffff1682604051611293906124e9565b60006040518083038185875af1925050503d80600081146112d0576040519150601f19603f3d011682016040523d82523d6000602084013e6112d5565b606091505b5050905080156112fc5781876112eb9190612450565b965081866112f99190612484565b95505b505b505b5050808061130d90611a8a565b915050611178565b50600081118015611327575060008351115b156113ca5760008360008151811061134257611341611a2c565b5b602002602001015173ffffffffffffffffffffffffffffffffffffffff168260405161136d906124e9565b60006040518083038185875af1925050503d80600081146113aa576040519150601f19603f3d011682016040523d82523d6000602084013e6113af565b606091505b5050905080156113c85781836113c59190612450565b92505b505b8673ffffffffffffffffffffffffffffffffffffffff167fc0527dfbf11e6bcd3249b6fdddc2472f1994a8112a43b87efa74c6ce5d31930f8385516040516114139291906124fe565b60405180910390a250505050505050565b6040518060600160405280600073ffffffffffffffffffffffffffffffffffffffff168152602001600081526020016000151581525090565b6000604051905090565b600080fd5b600080fd5b600073ffffffffffffffffffffffffffffffffffffffff82169050919050565b600061149c82611471565b9050919050565b6114ac81611491565b81146114b757600080fd5b50565b6000813590506114c9816114a3565b92915050565b6000602082840312156114e5576114e4611467565b5b60006114f3848285016114ba565b91505092915050565b600081519050919050565b600082825260208201905092915050565b6000819050602082019050919050565b61153181611491565b82525050565b6000819050919050565b61154a81611537565b82525050565b60008115159050919050565b61156581611550565b82525050565b6060820160008201516115816000850182611528565b5060208201516115946020850182611541565b5060408201516115a7604085018261155c565b50505050565b60006115b9838361156b565b60608301905092915050565b6000602082019050919050565b60006115dd826114fc565b6115e78185611507565b93506115f283611518565b8060005b8381101561162357815161160a88826115ad565b9750611615836115c5565b9250506001810190506115f6565b5085935050505092915050565b6000602082019050818103600083015261164a81846115d2565b905092915050565b61165b81611537565b811461166657600080fd5b50565b60008135905061167881611652565b92915050565b6000806040838503121561169557611694611467565b5b60006116a3858286016114ba565b92505060206116b485828601611669565b9150509250929050565b6116c781611491565b82525050565b6116d681611537565b82525050565b6116e581611550565b82525050565b600060608201905061170060008301866116be565b61170d60208301856116cd565b61171a60408301846116dc565b949350505050565b60006020828403121561173857611737611467565b5b600061174684828501611669565b91505092915050565b600060208201905061176460008301846116be565b92915050565b600081519050919050565b600082825260208201905092915050565b6000819050602082019050919050565b60006117a28383611528565b60208301905092915050565b6000602082019050919050565b60006117c68261176a565b6117d08185611775565b93506117db83611786565b8060005b8381101561180c5781516117f38882611796565b97506117fe836117ae565b9250506001810190506117df565b5085935050505092915050565b6000602082019050818103600083015261183381846117bb565b905092915050565b6000819050919050565b600061186061185b61185684611471565b61183b565b611471565b9050919050565b600061187282611845565b9050919050565b600061188482611867565b9050919050565b61189481611879565b82525050565b60006020820190506118af600083018461188b565b92915050565b600082825260208201905092915050565b7f4e6f206163746976652072656e74616c206c697374696e6720666f756e64206660008201527f6f7220746869732070726f706572747900000000000000000000000000000000602082015250565b60006119226030836118b5565b915061192d826118c6565b604082019050919050565b6000602082019050818103600083015261195181611915565b9050919050565b60008151905061196781611652565b92915050565b60006020828403121561198357611982611467565b5b600061199184828501611958565b91505092915050565b7f596f75206d757374206f776e20746f6b656e73206f6620746869732070726f7060008201527f6572747920746f2063616e63656c20746865206c697374696e67000000000000602082015250565b60006119f6603a836118b5565b9150611a018261199a565b604082019050919050565b60006020820190508181036000830152611a25816119e9565b9050919050565b7f4e487b7100000000000000000000000000000000000000000000000000000000600052603260045260246000fd5b7f4e487b7100000000000000000000000000000000000000000000000000000000600052601160045260246000fd5b6000611a9582611537565b91507fffffffffffffffffffffffffffffffffffffffffffffffffffffffffffffffff8203611ac757611ac6611a5b565b5b600182019050919050565b7f4e487b7100000000000000000000000000000000000000000000000000000000600052604160045260246000fd5b7f52656e74616c2072617465206d7573742062652067726561746572207468616e60008201527f2030000000000000000000000000000000000000000000000000000000000000602082015250565b6000611b5d6022836118b5565b9150611b6882611b01565b604082019050919050565b60006020820190508181036000830152611b8c81611b50565b9050919050565b600080fd5b6000601f19601f8301169050919050565b611bb282611b98565b810181811067ffffffffffffffff82111715611bd157611bd0611ad2565b5b80604052505050565b6000611be461145d565b9050611bf08282611ba9565b919050565b600067ffffffffffffffff821115611c1057611c0f611ad2565b5b602082029050602081019050919050565b600080fd5b600080fd5b600080fd5b600080fd5b600067ffffffffffffffff821115611c5057611c4f611ad2565b5b611c5982611b98565b9050602081019050919050565b60005b83811015611c84578082015181840152602081019050611c69565b60008484015250505050565b6000611ca3611c9e84611c35565b611bda565b905082815260208101848484011115611cbf57611cbe611c30565b5b611cca848285611c66565b509392505050565b600082601f830112611ce757611ce6611b93565b5b8151611cf7848260208601611c90565b91505092915050565b600081519050611d0f816114a3565b92915050565b600060608284031215611d2b57611d2a611c26565b5b611d356060611bda565b9050600082015167ffffffffffffffff811115611d5557611d54611c2b565b5b611d6184828501611cd2565b6000830152506020611d7584828501611d00565b602083015250604082015167ffffffffffffffff811115611d9957611d98611c2b565b5b611da584828501611cd2565b60408301525092915050565b6000611dc4611dbf84611bf5565b611bda565b90508083825260208201905060208402830185811115611de757611de6611c21565b5b835b81811015611e2e57805167ffffffffffffffff811115611e0c57611e0b611b93565b5b808601611e198982611d15565b85526020850194505050602081019050611de9565b5050509392505050565b600082601f830112611e4d57611e4c611b93565b5b8151611e5d848260208601611db1565b91505092915050565b600060208284031215611e7c57611e7b611467565b5b600082015167ffffffffffffffff811115611e9a57611e9961146c565b5b611ea684828501611e38565b91505092915050565b7f50726f7065727479206e6f7420666f756e6420696e2050726f70657274794d6160008201527f6e61676572000000000000000000000000000000000000000000000000000000602082015250565b6000611f0b6025836118b5565b9150611f1682611eaf565b604082019050919050565b60006020820190508181036000830152611f3a81611efe565b9050919050565b7f596f75206d757374206f776e20746f6b656e73206f6620746869732070726f7060008201527f6572747920746f206c69737420697420666f722072656e740000000000000000602082015250565b6000611f9d6038836118b5565b9150611fa882611f41565b604082019050919050565b60006020820190508181036000830152611fcc81611f90565b9050919050565b6000602082019050611fe860008301846116cd565b92915050565b7f50726f7065727479206973206e6f74206163746976656c79206c69737465642060008201527f666f722072656e74000000000000000000000000000000000000000000000000602082015250565b600061204a6028836118b5565b915061205582611fee565b604082019050919050565b600060208201905081810360008301526120798161203d565b9050919050565b7f496e73756666696369656e74207061796d656e7420666f722072656e74616c00600082015250565b60006120b6601f836118b5565b91506120c182612080565b602082019050919050565b600060208201905081810360008301526120e5816120a9565b9050919050565b7f596f75206d757374206f776e20746f6b656e73206f6620746869732070726f7060008201527f6572747920746f2075706461746520746865206c697374696e67000000000000602082015250565b6000612148603a836118b5565b9150612153826120ec565b604082019050919050565b600060208201905081810360008301526121778161213b565b9050919050565b7f546f74616c20737570706c79206f6620746f6b656e732063616e6e6f7420626560008201527f207a65726f000000000000000000000000000000000000000000000000000000602082015250565b60006121da6025836118b5565b91506121e58261217e565b604082019050919050565b60006020820190508181036000830152612209816121cd565b9050919050565b600067ffffffffffffffff82111561222b5761222a611ad2565b5b602082029050602081019050919050565b600061224f61224a84612210565b611bda565b9050808382526020820190506020840283018581111561227257612271611c21565b5b835b8181101561229b57806122878882611d00565b845260208401935050602081019050612274565b5050509392505050565b600082601f8301126122ba576122b9611b93565b5b81516122ca84826020860161223c565b91505092915050565b6000602082840312156122e9576122e8611467565b5b600082015167ffffffffffffffff8111156123075761230661146c565b5b612313848285016122a5565b91505092915050565b7f4e6f20746f6b656e20686f6c6465727320666f756e6420746f2064697374726960008201527f627574652072656e7420746f0000000000000000000000000000000000000000602082015250565b6000612378602c836118b5565b91506123838261231c565b604082019050919050565b600060208201905081810360008301526123a78161236b565b9050919050565b60006123b982611537565b91506123c483611537565b92508282026123d281611537565b915082820484148315176123e9576123e8611a5b565b5b5092915050565b7f4e487b7100000000000000000000000000000000000000000000000000000000600052601260045260246000fd5b600061242a82611537565b915061243583611537565b925082612445576124446123f0565b5b828204905092915050565b600061245b82611537565b915061246683611537565b925082820190508082111561247e5761247d611a5b565b5b92915050565b600061248f82611537565b915061249a83611537565b92508282039050818111156124b2576124b1611a5b565b5b92915050565b600081905092915050565b50565b60006124d36000836124b8565b91506124de826124c3565b600082019050919050565b60006124f4826124c6565b9150819050919050565b600060408201905061251360008301856116cd565b61252060208301846116cd565b939250505056fea26469706673582212202af1f9e0a188dc229643762584bb6060f0de6a7d5d2cbb95bc9eeb9c3abefed764736f6c63430008150033",
  "linkReferences": {},
  "deployedLinkReferences": {}
}