{
  "_format": "hh-sol-artifact-1",
  "contractName": "PropertyRental",
  "sourceName": "contracts/PropertyRental.sol",
  "abi": [
    {
      "inputs": [
        {
          "internalType": "address",
          "name": "_propertyManagerAddress",
          "type": "address"
        }
      ],
      "stateMutability": "nonpayable",
      "type": "constructor"
    },
    {
      "anonymous": false,
      "inputs": [
        {
          "indexed": true,
          "internalType": "address",
          "name": "propertyTokenAddress",
          "type": "address"
        },
        {
          "indexed": false,
          "internalType": "uint256",
          "name": "weeklyRate",
          "type": "uint256"
        }
      ],
      "name": "PropertyListedForRent",
      "type": "event"
    },
    {
      "anonymous": false,
      "inputs": [
        {
          "indexed": true,
          "internalType": "address",
          "name": "propertyTokenAddress",
          "type": "address"
        },
        {
          "indexed": true,
          "internalType": "address",
          "name": "renter",
          "type": "address"
        },
        {
          "indexed": false,
          "internalType": "uint256",
          "name": "amount",
          "type": "uint256"
        }
      ],
      "name": "PropertyRented",
      "type": "event"
    },
    {
      "anonymous": false,
      "inputs": [
        {
          "indexed": true,
          "internalType": "address",
          "name": "propertyTokenAddress",
          "type": "address"
        },
        {
          "indexed": false,
          "internalType": "uint256",
          "name": "totalRent",
          "type": "uint256"
        },
        {
          "indexed": false,
          "internalType": "uint256",
          "name": "tokenHolderCount",
          "type": "uint256"
        }
      ],
      "name": "RentDistributed",
      "type": "event"
    },
    {
      "anonymous": false,
      "inputs": [
        {
          "indexed": true,
          "internalType": "address",
          "name": "propertyTokenAddress",
          "type": "address"
        }
      ],
      "name": "RentalListingCancelled",
      "type": "event"
    },
    {
      "anonymous": false,
      "inputs": [
        {
          "indexed": true,
          "internalType": "address",
          "name": "propertyTokenAddress",
          "type": "address"
        },
        {
          "indexed": false,
          "internalType": "uint256",
          "name": "newWeeklyRate",
          "type": "uint256"
        }
      ],
      "name": "RentalListingUpdated",
      "type": "event"
    },
    {
      "inputs": [
        {
          "internalType": "address",
          "name": "propertyTokenAddress",
          "type": "address"
        }
      ],
      "name": "cancelRentalListing",
      "outputs": [],
      "stateMutability": "nonpayable",
      "type": "function"
    },
    {
      "inputs": [],
      "name": "getActiveRentalListings",
      "outputs": [
        {
          "components": [
            {
              "internalType": "address",
              "name": "propertyTokenAddress",
              "type": "address"
            },
            {
              "internalType": "uint256",
              "name": "weeklyRate",
              "type": "uint256"
            },
            {
              "internalType": "bool",
              "name": "isActive",
              "type": "bool"
            },
            {
              "internalType": "uint256",
              "name": "lastRentedTime",
              "type": "uint256"
            },
            {
              "internalType": "uint256",
              "name": "rentalDuration",
              "type": "uint256"
            }
          ],
          "internalType": "struct PropertyRental.RentalListing[]",
          "name": "",
          "type": "tuple[]"
        }
      ],
      "stateMutability": "view",
      "type": "function"
    },
    {
      "inputs": [],
      "name": "getAllListedProperties",
      "outputs": [
        {
          "internalType": "address[]",
          "name": "",
          "type": "address[]"
        }
      ],
      "stateMutability": "view",
      "type": "function"
    },
    {
      "inputs": [
        {
          "internalType": "address",
          "name": "propertyTokenAddress",
          "type": "address"
        }
      ],
      "name": "getRentalTimeRemaining",
      "outputs": [
        {
          "internalType": "uint256",
          "name": "",
          "type": "uint256"
        }
      ],
      "stateMutability": "view",
      "type": "function"
    },
    {
      "inputs": [
        {
          "internalType": "address",
          "name": "propertyTokenAddress",
          "type": "address"
        }
      ],
      "name": "isPropertyRented",
      "outputs": [
        {
          "internalType": "bool",
          "name": "",
          "type": "bool"
        }
      ],
      "stateMutability": "view",
      "type": "function"
    },
    {
      "inputs": [
        {
          "internalType": "address",
          "name": "propertyTokenAddress",
          "type": "address"
        },
        {
          "internalType": "uint256",
          "name": "weeklyRate",
          "type": "uint256"
        }
      ],
      "name": "listPropertyForRent",
      "outputs": [],
      "stateMutability": "nonpayable",
      "type": "function"
    },
    {
      "inputs": [
        {
          "internalType": "uint256",
          "name": "",
          "type": "uint256"
        }
      ],
      "name": "listedProperties",
      "outputs": [
        {
          "internalType": "address",
          "name": "",
          "type": "address"
        }
      ],
      "stateMutability": "view",
      "type": "function"
    },
    {
      "inputs": [],
      "name": "propertyManager",
      "outputs": [
        {
          "internalType": "contract PropertyManager",
          "name": "",
          "type": "address"
        }
      ],
      "stateMutability": "view",
      "type": "function"
    },
    {
      "inputs": [
        {
          "internalType": "address",
          "name": "propertyTokenAddress",
          "type": "address"
        }
      ],
      "name": "rentProperty",
      "outputs": [],
      "stateMutability": "payable",
      "type": "function"
    },
    {
      "inputs": [
        {
          "internalType": "address",
          "name": "",
          "type": "address"
        }
      ],
      "name": "rentalListings",
      "outputs": [
        {
          "internalType": "address",
          "name": "propertyTokenAddress",
          "type": "address"
        },
        {
          "internalType": "uint256",
          "name": "weeklyRate",
          "type": "uint256"
        },
        {
          "internalType": "bool",
          "name": "isActive",
          "type": "bool"
        },
        {
          "internalType": "uint256",
          "name": "lastRentedTime",
          "type": "uint256"
        },
        {
          "internalType": "uint256",
          "name": "rentalDuration",
          "type": "uint256"
        }
      ],
      "stateMutability": "view",
      "type": "function"
    },
    {
      "inputs": [
        {
          "internalType": "address",
          "name": "propertyTokenAddress",
          "type": "address"
        },
        {
          "internalType": "uint256",
          "name": "newWeeklyRate",
          "type": "uint256"
        }
      ],
      "name": "updateRentalListing",
      "outputs": [],
      "stateMutability": "nonpayable",
      "type": "function"
    }
  ],
  "bytecode": "0x60806040523480156200001157600080fd5b50604051620029d4380380620029d48339818101604052810190620000379190620000e9565b80600360006101000a81548173ffffffffffffffffffffffffffffffffffffffff021916908373ffffffffffffffffffffffffffffffffffffffff160217905550506200011b565b600080fd5b600073ffffffffffffffffffffffffffffffffffffffff82169050919050565b6000620000b18262000084565b9050919050565b620000c381620000a4565b8114620000cf57600080fd5b50565b600081519050620000e381620000b8565b92915050565b6000602082840312156200010257620001016200007f565b5b60006200011284828501620000d2565b91505092915050565b6128a9806200012b6000396000f3fe60806040526004361061009c5760003560e01c8063883643cc11610064578063883643cc146101985780638c7929f5146101d9578063916ee16d14610216578063a1e2305f14610232578063d6233eaf1461025d578063e7356cb5146102865761009c565b80633ade41e1146100a15780634913fcba146100ca57806373b1e86f146100f55780637c8dcf471461013257806384e65ffa1461015b575b600080fd5b3480156100ad57600080fd5b506100c860048036038101906100c39190611752565b6102b1565b005b3480156100d657600080fd5b506100df61046a565b6040516100ec91906118d9565b60405180910390f35b34801561010157600080fd5b5061011c60048036038101906101179190611752565b610755565b604051610129919061190a565b60405180910390f35b34801561013e57600080fd5b5061015960048036038101906101549190611951565b6107e7565b005b34801561016757600080fd5b50610182600480360381019061017d9190611752565b610caa565b60405161018f91906119a0565b60405180910390f35b3480156101a457600080fd5b506101bf60048036038101906101ba9190611752565b610d62565b6040516101d09594939291906119ca565b60405180910390f35b3480156101e557600080fd5b5061020060048036038101906101fb9190611a1d565b610dc5565b60405161020d9190611a4a565b60405180910390f35b610230600480360381019061022b9190611752565b610e04565b005b34801561023e57600080fd5b50610247610fc5565b6040516102549190611b14565b60405180910390f35b34801561026957600080fd5b50610284600480360381019061027f9190611951565b611053565b005b34801561029257600080fd5b5061029b611247565b6040516102a89190611b95565b60405180910390f35b60008060008373ffffffffffffffffffffffffffffffffffffffff1673ffffffffffffffffffffffffffffffffffffffff16815260200190815260200160002090508060020160009054906101000a900460ff16610344576040517f08c379a000000000000000000000000000000000000000000000000000000000815260040161033b90611c33565b60405180910390fd5b600082905060008173ffffffffffffffffffffffffffffffffffffffff166370a08231336040518263ffffffff1660e01b81526004016103849190611a4a565b602060405180830381865afa1580156103a1573d6000803e3d6000fd5b505050506040513d601f19601f820116820180604052508101906103c59190611c68565b11610405576040517f08c379a00000000000000000000000000000000000000000000000000000000081526004016103fc90611d07565b60405180910390fd5b60008260020160006101000a81548160ff0219169083151502179055508273ffffffffffffffffffffffffffffffffffffffff167ff1a14a8d735c1da3ad087935cc97f29643f334d9e91202bc99d155dc242aaa8860405160405180910390a2505050565b60606000805b600180549050811015610531576000806001838154811061049457610493611d27565b5b9060005260206000200160009054906101000a900473ffffffffffffffffffffffffffffffffffffffff1673ffffffffffffffffffffffffffffffffffffffff1673ffffffffffffffffffffffffffffffffffffffff16815260200190815260200160002060020160009054906101000a900460ff161561051e57818061051a90611d85565b9250505b808061052990611d85565b915050610470565b5060008167ffffffffffffffff81111561054e5761054d611dcd565b5b60405190808252806020026020018201604052801561058757816020015b610574611699565b81526020019060019003908161056c5790505b5090506000805b60018054905081101561074b576000600182815481106105b1576105b0611d27565b5b9060005260206000200160009054906101000a900473ffffffffffffffffffffffffffffffffffffffff1690506000808273ffffffffffffffffffffffffffffffffffffffff1673ffffffffffffffffffffffffffffffffffffffff16815260200190815260200160002060020160009054906101000a900460ff1615610737576000808273ffffffffffffffffffffffffffffffffffffffff1673ffffffffffffffffffffffffffffffffffffffff1681526020019081526020016000206040518060a00160405290816000820160009054906101000a900473ffffffffffffffffffffffffffffffffffffffff1673ffffffffffffffffffffffffffffffffffffffff1673ffffffffffffffffffffffffffffffffffffffff168152602001600182015481526020016002820160009054906101000a900460ff161515151581526020016003820154815260200160048201548152505084848151811061071d5761071c611d27565b5b6020026020010181905250828061073390611d85565b9350505b50808061074390611d85565b91505061058e565b5081935050505090565b6000806000808473ffffffffffffffffffffffffffffffffffffffff1673ffffffffffffffffffffffffffffffffffffffff16815260200190815260200160002090508060020160009054906101000a900460ff166107b85760009150506107e2565b600081600301541180156107de575080600401548160030154426107dc9190611dfc565b105b9150505b919050565b6000811161082a576040517f08c379a000000000000000000000000000000000000000000000000000000000815260040161082190611ea2565b60405180910390fd5b600080600360009054906101000a900473ffffffffffffffffffffffffffffffffffffffff1673ffffffffffffffffffffffffffffffffffffffff16633d51402c6040518163ffffffff1660e01b8152600401600060405180830381865afa15801561089a573d6000803e3d6000fd5b505050506040513d6000823e3d601f19601f820116820180604052508101906108c39190612195565b905060005b815181101561093e578473ffffffffffffffffffffffffffffffffffffffff168282815181106108fb576108fa611d27565b5b60200260200101516020015173ffffffffffffffffffffffffffffffffffffffff160361092b576001925061093e565b808061093690611d85565b9150506108c8565b508161097f576040517f08c379a000000000000000000000000000000000000000000000000000000000815260040161097690612250565b60405180910390fd5b600084905060008173ffffffffffffffffffffffffffffffffffffffff166370a08231336040518263ffffffff1660e01b81526004016109bf9190611a4a565b602060405180830381865afa1580156109dc573d6000803e3d6000fd5b505050506040513d601f19601f82011682018060405250810190610a009190611c68565b11610a40576040517f08c379a0000000000000000000000000000000000000000000000000000000008152600401610a37906122e2565b60405180910390fd5b6040518060a001604052808673ffffffffffffffffffffffffffffffffffffffff16815260200185815260200160011515815260200160008152602001600f8152506000808773ffffffffffffffffffffffffffffffffffffffff1673ffffffffffffffffffffffffffffffffffffffff16815260200190815260200160002060008201518160000160006101000a81548173ffffffffffffffffffffffffffffffffffffffff021916908373ffffffffffffffffffffffffffffffffffffffff1602179055506020820151816001015560408201518160020160006101000a81548160ff0219169083151502179055506060820151816003015560808201518160040155905050600260008673ffffffffffffffffffffffffffffffffffffffff1673ffffffffffffffffffffffffffffffffffffffff16815260200190815260200160002060009054906101000a900460ff16610c55576001859080600181540180825580915050600190039060005260206000200160009091909190916101000a81548173ffffffffffffffffffffffffffffffffffffffff021916908373ffffffffffffffffffffffffffffffffffffffff1602179055506001600260008773ffffffffffffffffffffffffffffffffffffffff1673ffffffffffffffffffffffffffffffffffffffff16815260200190815260200160002060006101000a81548160ff0219169083151502179055505b8473ffffffffffffffffffffffffffffffffffffffff167f38d009b22bc0f28b593a213496006b7c9b1e40e9f718b35c50ffbeaa87d8df6685604051610c9b91906119a0565b60405180910390a25050505050565b6000806000808473ffffffffffffffffffffffffffffffffffffffff1673ffffffffffffffffffffffffffffffffffffffff16815260200190815260200160002090508060020160009054906101000a900460ff161580610d0f575060008160030154145b15610d1e576000915050610d5d565b6000816003015442610d309190611dfc565b905081600401548110610d4857600092505050610d5d565b808260040154610d589190611dfc565b925050505b919050565b60006020528060005260406000206000915090508060000160009054906101000a900473ffffffffffffffffffffffffffffffffffffffff16908060010154908060020160009054906101000a900460ff16908060030154908060040154905085565b60018181548110610dd557600080fd5b906000526020600020016000915054906101000a900473ffffffffffffffffffffffffffffffffffffffff1681565b60008060008373ffffffffffffffffffffffffffffffffffffffff1673ffffffffffffffffffffffffffffffffffffffff16815260200190815260200160002090508060020160009054906101000a900460ff16610e97576040517f08c379a0000000000000000000000000000000000000000000000000000000008152600401610e8e90612374565b60405180910390fd5b6000808260030154118015610ebe57508160040154826003015442610ebc9190611dfc565b105b90508015610f01576040517f08c379a0000000000000000000000000000000000000000000000000000000008152600401610ef8906123e0565b60405180910390fd5b8160010154341015610f48576040517f08c379a0000000000000000000000000000000000000000000000000000000008152600401610f3f9061244c565b60405180910390fd5b428260030181905550610f5b833461126d565b3373ffffffffffffffffffffffffffffffffffffffff168373ffffffffffffffffffffffffffffffffffffffff167f4fc3a676fdeef8973dc185dc49c43ba446e6c7e00c459a429b5dee5d6b92907f34604051610fb891906119a0565b60405180910390a3505050565b6060600180548060200260200160405190810160405280929190818152602001828054801561104957602002820191906000526020600020905b8160009054906101000a900473ffffffffffffffffffffffffffffffffffffffff1673ffffffffffffffffffffffffffffffffffffffff1681526020019060010190808311610fff575b5050505050905090565b60008111611096576040517f08c379a000000000000000000000000000000000000000000000000000000000815260040161108d90611ea2565b60405180910390fd5b60008060008473ffffffffffffffffffffffffffffffffffffffff1673ffffffffffffffffffffffffffffffffffffffff16815260200190815260200160002090508060020160009054906101000a900460ff16611129576040517f08c379a000000000000000000000000000000000000000000000000000000000815260040161112090611c33565b60405180910390fd5b600083905060008173ffffffffffffffffffffffffffffffffffffffff166370a08231336040518263ffffffff1660e01b81526004016111699190611a4a565b602060405180830381865afa158015611186573d6000803e3d6000fd5b505050506040513d601f19601f820116820180604052508101906111aa9190611c68565b116111ea576040517f08c379a00000000000000000000000000000000000000000000000000000000081526004016111e1906124de565b60405180910390fd5b8282600101819055508373ffffffffffffffffffffffffffffffffffffffff167f4fbe9cbb7f3d5a5bede53be4a3b01e8d2e5c795cdf5b54fb76b30a406a4e53348460405161123991906119a0565b60405180910390a250505050565b600360009054906101000a900473ffffffffffffffffffffffffffffffffffffffff1681565b600082905060008173ffffffffffffffffffffffffffffffffffffffff166318160ddd6040518163ffffffff1660e01b8152600401602060405180830381865afa1580156112bf573d6000803e3d6000fd5b505050506040513d601f19601f820116820180604052508101906112e39190611c68565b905060008111611328576040517f08c379a000000000000000000000000000000000000000000000000000000000815260040161131f90612570565b60405180910390fd5b60008273ffffffffffffffffffffffffffffffffffffffff16637dc56e1d6040518163ffffffff1660e01b8152600401600060405180830381865afa158015611375573d6000803e3d6000fd5b505050506040513d6000823e3d601f19601f8201168201806040525081019061139e9190612653565b905060008151116113e4576040517f08c379a00000000000000000000000000000000000000000000000000000000081526004016113db9061270e565b60405180910390fd5b60008085905060005b835181101561158a57600084828151811061140b5761140a611d27565b5b6020026020010151905060008773ffffffffffffffffffffffffffffffffffffffff166370a08231836040518263ffffffff1660e01b81526004016114509190611a4a565b602060405180830381865afa15801561146d573d6000803e3d6000fd5b505050506040513d601f19601f820116820180604052508101906114919190611c68565b9050600081111561157557600087828b6114ab919061272e565b6114b5919061279f565b90508981876114c491906127d0565b11156114d957858a6114d69190611dfc565b90505b60008111156115735760008373ffffffffffffffffffffffffffffffffffffffff168260405161150890612835565b60006040518083038185875af1925050503d8060008114611545576040519150601f19603f3d011682016040523d82523d6000602084013e61154a565b606091505b50509050801561157157818761156091906127d0565b9650818661156e9190611dfc565b95505b505b505b5050808061158290611d85565b9150506113ed565b5060008111801561159c575060008351115b1561163f576000836000815181106115b7576115b6611d27565b5b602002602001015173ffffffffffffffffffffffffffffffffffffffff16826040516115e290612835565b60006040518083038185875af1925050503d806000811461161f576040519150601f19603f3d011682016040523d82523d6000602084013e611624565b606091505b50509050801561163d57818361163a91906127d0565b92505b505b8673ffffffffffffffffffffffffffffffffffffffff167fc0527dfbf11e6bcd3249b6fdddc2472f1994a8112a43b87efa74c6ce5d31930f83855160405161168892919061284a565b60405180910390a250505050505050565b6040518060a00160405280600073ffffffffffffffffffffffffffffffffffffffff1681526020016000815260200160001515815260200160008152602001600081525090565b6000604051905090565b600080fd5b600080fd5b600073ffffffffffffffffffffffffffffffffffffffff82169050919050565b600061171f826116f4565b9050919050565b61172f81611714565b811461173a57600080fd5b50565b60008135905061174c81611726565b92915050565b600060208284031215611768576117676116ea565b5b60006117768482850161173d565b91505092915050565b600081519050919050565b600082825260208201905092915050565b6000819050602082019050919050565b6117b481611714565b82525050565b6000819050919050565b6117cd816117ba565b82525050565b60008115159050919050565b6117e8816117d3565b82525050565b60a08201600082015161180460008501826117ab565b50602082015161181760208501826117c4565b50604082015161182a60408501826117df565b50606082015161183d60608501826117c4565b50608082015161185060808501826117c4565b50505050565b600061186283836117ee565b60a08301905092915050565b6000602082019050919050565b60006118868261177f565b611890818561178a565b935061189b8361179b565b8060005b838110156118cc5781516118b38882611856565b97506118be8361186e565b92505060018101905061189f565b5085935050505092915050565b600060208201905081810360008301526118f3818461187b565b905092915050565b611904816117d3565b82525050565b600060208201905061191f60008301846118fb565b92915050565b61192e816117ba565b811461193957600080fd5b50565b60008135905061194b81611925565b92915050565b60008060408385031215611968576119676116ea565b5b60006119768582860161173d565b92505060206119878582860161193c565b9150509250929050565b61199a816117ba565b82525050565b60006020820190506119b56000830184611991565b92915050565b6119c481611714565b82525050565b600060a0820190506119df60008301886119bb565b6119ec6020830187611991565b6119f960408301866118fb565b611a066060830185611991565b611a136080830184611991565b9695505050505050565b600060208284031215611a3357611a326116ea565b5b6000611a418482850161193c565b91505092915050565b6000602082019050611a5f60008301846119bb565b92915050565b600081519050919050565b600082825260208201905092915050565b6000819050602082019050919050565b6000611a9d83836117ab565b60208301905092915050565b6000602082019050919050565b6000611ac182611a65565b611acb8185611a70565b9350611ad683611a81565b8060005b83811015611b07578151611aee8882611a91565b9750611af983611aa9565b925050600181019050611ada565b5085935050505092915050565b60006020820190508181036000830152611b2e8184611ab6565b905092915050565b6000819050919050565b6000611b5b611b56611b51846116f4565b611b36565b6116f4565b9050919050565b6000611b6d82611b40565b9050919050565b6000611b7f82611b62565b9050919050565b611b8f81611b74565b82525050565b6000602082019050611baa6000830184611b86565b92915050565b600082825260208201905092915050565b7f4e6f206163746976652072656e74616c206c697374696e6720666f756e64206660008201527f6f7220746869732070726f706572747900000000000000000000000000000000602082015250565b6000611c1d603083611bb0565b9150611c2882611bc1565b604082019050919050565b60006020820190508181036000830152611c4c81611c10565b9050919050565b600081519050611c6281611925565b92915050565b600060208284031215611c7e57611c7d6116ea565b5b6000611c8c84828501611c53565b91505092915050565b7f596f75206d757374206f776e20746f6b656e73206f6620746869732070726f7060008201527f6572747920746f2063616e63656c20746865206c697374696e67000000000000602082015250565b6000611cf1603a83611bb0565b9150611cfc82611c95565b604082019050919050565b60006020820190508181036000830152611d2081611ce4565b9050919050565b7f4e487b7100000000000000000000000000000000000000000000000000000000600052603260045260246000fd5b7f4e487b7100000000000000000000000000000000000000000000000000000000600052601160045260246000fd5b6000611d90826117ba565b91507fffffffffffffffffffffffffffffffffffffffffffffffffffffffffffffffff8203611dc257611dc1611d56565b5b600182019050919050565b7f4e487b7100000000000000000000000000000000000000000000000000000000600052604160045260246000fd5b6000611e07826117ba565b9150611e12836117ba565b9250828203905081811115611e2a57611e29611d56565b5b92915050565b7f52656e74616c2072617465206d7573742062652067726561746572207468616e60008201527f2030000000000000000000000000000000000000000000000000000000000000602082015250565b6000611e8c602283611bb0565b9150611e9782611e30565b604082019050919050565b60006020820190508181036000830152611ebb81611e7f565b9050919050565b600080fd5b6000601f19601f8301169050919050565b611ee182611ec7565b810181811067ffffffffffffffff82111715611f0057611eff611dcd565b5b80604052505050565b6000611f136116e0565b9050611f1f8282611ed8565b919050565b600067ffffffffffffffff821115611f3f57611f3e611dcd565b5b602082029050602081019050919050565b600080fd5b600080fd5b600080fd5b600080fd5b600067ffffffffffffffff821115611f7f57611f7e611dcd565b5b611f8882611ec7565b9050602081019050919050565b60005b83811015611fb3578082015181840152602081019050611f98565b60008484015250505050565b6000611fd2611fcd84611f64565b611f09565b905082815260208101848484011115611fee57611fed611f5f565b5b611ff9848285611f95565b509392505050565b600082601f83011261201657612015611ec2565b5b8151612026848260208601611fbf565b91505092915050565b60008151905061203e81611726565b92915050565b60006060828403121561205a57612059611f55565b5b6120646060611f09565b9050600082015167ffffffffffffffff81111561208457612083611f5a565b5b61209084828501612001565b60008301525060206120a48482850161202f565b602083015250604082015167ffffffffffffffff8111156120c8576120c7611f5a565b5b6120d484828501612001565b60408301525092915050565b60006120f36120ee84611f24565b611f09565b9050808382526020820190506020840283018581111561211657612115611f50565b5b835b8181101561215d57805167ffffffffffffffff81111561213b5761213a611ec2565b5b8086016121488982612044565b85526020850194505050602081019050612118565b5050509392505050565b600082601f83011261217c5761217b611ec2565b5b815161218c8482602086016120e0565b91505092915050565b6000602082840312156121ab576121aa6116ea565b5b600082015167ffffffffffffffff8111156121c9576121c86116ef565b5b6121d584828501612167565b91505092915050565b7f50726f7065727479206e6f7420666f756e6420696e2050726f70657274794d6160008201527f6e61676572000000000000000000000000000000000000000000000000000000602082015250565b600061223a602583611bb0565b9150612245826121de565b604082019050919050565b600060208201905081810360008301526122698161222d565b9050919050565b7f596f75206d757374206f776e20746f6b656e73206f6620746869732070726f7060008201527f6572747920746f206c69737420697420666f722072656e740000000000000000602082015250565b60006122cc603883611bb0565b91506122d782612270565b604082019050919050565b600060208201905081810360008301526122fb816122bf565b9050919050565b7f50726f7065727479206973206e6f74206163746976656c79206c69737465642060008201527f666f722072656e74000000000000000000000000000000000000000000000000602082015250565b600061235e602883611bb0565b915061236982612302565b604082019050919050565b6000602082019050818103600083015261238d81612351565b9050919050565b7f50726f70657274792069732063757272656e746c792072656e74656400000000600082015250565b60006123ca601c83611bb0565b91506123d582612394565b602082019050919050565b600060208201905081810360008301526123f9816123bd565b9050919050565b7f496e73756666696369656e74207061796d656e7420666f722072656e74616c00600082015250565b6000612436601f83611bb0565b915061244182612400565b602082019050919050565b6000602082019050818103600083015261246581612429565b9050919050565b7f596f75206d757374206f776e20746f6b656e73206f6620746869732070726f7060008201527f6572747920746f2075706461746520746865206c697374696e67000000000000602082015250565b60006124c8603a83611bb0565b91506124d38261246c565b604082019050919050565b600060208201905081810360008301526124f7816124bb565b9050919050565b7f546f74616c20737570706c79206f6620746f6b656e732063616e6e6f7420626560008201527f207a65726f000000000000000000000000000000000000000000000000000000602082015250565b600061255a602583611bb0565b9150612565826124fe565b604082019050919050565b600060208201905081810360008301526125898161254d565b9050919050565b600067ffffffffffffffff8211156125ab576125aa611dcd565b5b602082029050602081019050919050565b60006125cf6125ca84612590565b611f09565b905080838252602082019050602084028301858111156125f2576125f1611f50565b5b835b8181101561261b5780612607888261202f565b8452602084019350506020810190506125f4565b5050509392505050565b600082601f83011261263a57612639611ec2565b5b815161264a8482602086016125bc565b91505092915050565b600060208284031215612669576126686116ea565b5b600082015167ffffffffffffffff811115612687576126866116ef565b5b61269384828501612625565b91505092915050565b7f4e6f20746f6b656e20686f6c6465727320666f756e6420746f2064697374726960008201527f627574652072656e7420746f0000000000000000000000000000000000000000602082015250565b60006126f8602c83611bb0565b91506127038261269c565b604082019050919050565b60006020820190508181036000830152612727816126eb565b9050919050565b6000612739826117ba565b9150612744836117ba565b9250828202612752816117ba565b9150828204841483151761276957612768611d56565b5b5092915050565b7f4e487b7100000000000000000000000000000000000000000000000000000000600052601260045260246000fd5b60006127aa826117ba565b91506127b5836117ba565b9250826127c5576127c4612770565b5b828204905092915050565b60006127db826117ba565b91506127e6836117ba565b92508282019050808211156127fe576127fd611d56565b5b92915050565b600081905092915050565b50565b600061281f600083612804565b915061282a8261280f565b600082019050919050565b600061284082612812565b9150819050919050565b600060408201905061285f6000830185611991565b61286c6020830184611991565b939250505056fea26469706673582212209ddb432e9a238d1189b534d188fa78457e87e8b11d6646adf1d9cbc519f6f0c264736f6c63430008150033",
  "linkReferences": {},
  "deployedLinkReferences": {}
}