{
  "_format": "hh-sol-artifact-1",
  "contractName": "TokenMarketplace",
  "sourceName": "contracts/TokenMarketplace.sol",
  "abi": [
    {
      "anonymous": false,
      "inputs": [
        {
          "indexed": true,
          "internalType": "address",
          "name": "tokenAddress",
          "type": "address"
        },
        {
          "indexed": true,
          "internalType": "address",
          "name": "seller",
          "type": "address"
        }
      ],
      "name": "ListingCancelled",
      "type": "event"
    },
    {
      "anonymous": false,
      "inputs": [
        {
          "indexed": true,
          "internalType": "address",
          "name": "tokenAddress",
          "type": "address"
        },
        {
          "indexed": true,
          "internalType": "address",
          "name": "seller",
          "type": "address"
        },
        {
          "indexed": false,
          "internalType": "uint256",
          "name": "pricePerToken",
          "type": "uint256"
        },
        {
          "indexed": false,
          "internalType": "uint256",
          "name": "amount",
          "type": "uint256"
        }
      ],
      "name": "ListingUpdated",
      "type": "event"
    },
    {
      "anonymous": false,
      "inputs": [
        {
          "indexed": true,
          "internalType": "address",
          "name": "tokenAddress",
          "type": "address"
        },
        {
          "indexed": true,
          "internalType": "address",
          "name": "seller",
          "type": "address"
        },
        {
          "indexed": false,
          "internalType": "uint256",
          "name": "pricePerToken",
          "type": "uint256"
        },
        {
          "indexed": false,
          "internalType": "uint256",
          "name": "amount",
          "type": "uint256"
        }
      ],
      "name": "TokenListed",
      "type": "event"
    },
    {
      "anonymous": false,
      "inputs": [
        {
          "indexed": true,
          "internalType": "address",
          "name": "tokenAddress",
          "type": "address"
        },
        {
          "indexed": true,
          "internalType": "address",
          "name": "buyer",
          "type": "address"
        },
        {
          "indexed": true,
          "internalType": "address",
          "name": "seller",
          "type": "address"
        },
        {
          "indexed": false,
          "internalType": "uint256",
          "name": "amount",
          "type": "uint256"
        },
        {
          "indexed": false,
          "internalType": "uint256",
          "name": "totalPrice",
          "type": "uint256"
        }
      ],
      "name": "TokensPurchased",
      "type": "event"
    },
    {
      "inputs": [
        {
          "internalType": "address",
          "name": "tokenAddress",
          "type": "address"
        },
        {
          "internalType": "address",
          "name": "seller",
          "type": "address"
        },
        {
          "internalType": "uint256",
          "name": "amount",
          "type": "uint256"
        }
      ],
      "name": "buyTokens",
      "outputs": [],
      "stateMutability": "payable",
      "type": "function"
    },
    {
      "inputs": [
        {
          "internalType": "address",
          "name": "tokenAddress",
          "type": "address"
        }
      ],
      "name": "cancelListing",
      "outputs": [],
      "stateMutability": "nonpayable",
      "type": "function"
    },
    {
      "inputs": [
        {
          "internalType": "address",
          "name": "_tokenAddress",
          "type": "address"
        }
      ],
      "name": "getActiveListingsForToken",
      "outputs": [
        {
          "components": [
            {
              "internalType": "address",
              "name": "tokenAddress",
              "type": "address"
            },
            {
              "internalType": "address",
              "name": "seller",
              "type": "address"
            },
            {
              "internalType": "uint256",
              "name": "pricePerToken",
              "type": "uint256"
            },
            {
              "internalType": "uint256",
              "name": "availableTokens",
              "type": "uint256"
            },
            {
              "internalType": "bool",
              "name": "active",
              "type": "bool"
            }
          ],
          "internalType": "struct TokenMarketplace.TokenListing[]",
          "name": "",
          "type": "tuple[]"
        }
      ],
      "stateMutability": "view",
      "type": "function"
    },
    {
      "inputs": [],
      "name": "getAllListedTokens",
      "outputs": [
        {
          "internalType": "address[]",
          "name": "",
          "type": "address[]"
        }
      ],
      "stateMutability": "view",
      "type": "function"
    },
    {
      "inputs": [
        {
          "internalType": "address",
          "name": "tokenAddress",
          "type": "address"
        },
        {
          "internalType": "address",
          "name": "seller",
          "type": "address"
        }
      ],
      "name": "getListing",
      "outputs": [
        {
          "internalType": "address",
          "name": "",
          "type": "address"
        },
        {
          "internalType": "address",
          "name": "",
          "type": "address"
        },
        {
          "internalType": "uint256",
          "name": "",
          "type": "uint256"
        },
        {
          "internalType": "uint256",
          "name": "",
          "type": "uint256"
        },
        {
          "internalType": "bool",
          "name": "",
          "type": "bool"
        }
      ],
      "stateMutability": "view",
      "type": "function"
    },
    {
      "inputs": [
        {
          "internalType": "address",
          "name": "tokenAddress",
          "type": "address"
        }
      ],
      "name": "isTokenListed",
      "outputs": [
        {
          "internalType": "bool",
          "name": "",
          "type": "bool"
        }
      ],
      "stateMutability": "view",
      "type": "function"
    },
    {
      "inputs": [
        {
          "internalType": "address",
          "name": "tokenAddress",
          "type": "address"
        },
        {
          "internalType": "uint256",
          "name": "pricePerToken",
          "type": "uint256"
        },
        {
          "internalType": "uint256",
          "name": "amount",
          "type": "uint256"
        }
      ],
      "name": "listTokens",
      "outputs": [],
      "stateMutability": "nonpayable",
      "type": "function"
    },
    {
      "inputs": [
        {
          "internalType": "uint256",
          "name": "",
          "type": "uint256"
        }
      ],
      "name": "listedTokens",
      "outputs": [
        {
          "internalType": "address",
          "name": "",
          "type": "address"
        }
      ],
      "stateMutability": "view",
      "type": "function"
    },
    {
      "inputs": [
        {
          "internalType": "address",
          "name": "",
          "type": "address"
        },
        {
          "internalType": "address",
          "name": "",
          "type": "address"
        }
      ],
      "name": "listings",
      "outputs": [
        {
          "internalType": "address",
          "name": "tokenAddress",
          "type": "address"
        },
        {
          "internalType": "address",
          "name": "seller",
          "type": "address"
        },
        {
          "internalType": "uint256",
          "name": "pricePerToken",
          "type": "uint256"
        },
        {
          "internalType": "uint256",
          "name": "availableTokens",
          "type": "uint256"
        },
        {
          "internalType": "bool",
          "name": "active",
          "type": "bool"
        }
      ],
      "stateMutability": "view",
      "type": "function"
    },
    {
      "inputs": [
        {
          "internalType": "address",
          "name": "",
          "type": "address"
        },
        {
          "internalType": "uint256",
          "name": "",
          "type": "uint256"
        }
      ],
      "name": "sellersByToken",
      "outputs": [
        {
          "internalType": "address",
          "name": "",
          "type": "address"
        }
      ],
      "stateMutability": "view",
      "type": "function"
    },
    {
      "inputs": [
        {
          "internalType": "address",
          "name": "tokenAddress",
          "type": "address"
        },
        {
          "internalType": "uint256",
          "name": "newPricePerToken",
          "type": "uint256"
        },
        {
          "internalType": "uint256",
          "name": "newAmount",
          "type": "uint256"
        }
      ],
      "name": "updateListing",
      "outputs": [],
      "stateMutability": "nonpayable",
      "type": "function"
    }
  ],
  "bytecode": "0x608060405234801561001057600080fd5b50613959806100206000396000f3fe60806040526004361061009c5760003560e01c8063ba4a7c6211610064578063ba4a7c62146101b0578063db931fcd146101ed578063dcefa5381461022e578063e69ec6531461024a578063f772adf114610287578063fa982ad1146102b05761009c565b80634724da6f146100a15780635a9d1ac3146100ca578063a50d998314610107578063a69d160714610132578063b369f6ad1461016f575b600080fd5b3480156100ad57600080fd5b506100c860048036038101906100c39190612504565b6102d9565b005b3480156100d657600080fd5b506100f160048036038101906100ec9190612567565b6104c0565b6040516100fe91906125a3565b60405180910390f35b34801561011357600080fd5b5061011c6104ff565b604051610129919061267c565b60405180910390f35b34801561013e57600080fd5b506101596004803603810190610154919061269e565b61058d565b60405161016691906125a3565b60405180910390f35b34801561017b57600080fd5b50610196600480360381019061019191906126de565b6105db565b6040516101a7959493929190612748565b60405180910390f35b3480156101bc57600080fd5b506101d760048036038101906101d29190612504565b6106dc565b6040516101e491906128d0565b60405180910390f35b3480156101f957600080fd5b50610214600480360381019061020f91906126de565b610b0e565b604051610225959493929190612748565b60405180910390f35b610248600480360381019061024391906128f2565b610b9e565b005b34801561025657600080fd5b50610271600480360381019061026c9190612504565b61140a565b60405161027e9190612945565b60405180910390f35b34801561029357600080fd5b506102ae60048036038101906102a99190612960565b611460565b005b3480156102bc57600080fd5b506102d760048036038101906102d29190612960565b611b6b565b005b60008060008373ffffffffffffffffffffffffffffffffffffffff1673ffffffffffffffffffffffffffffffffffffffff16815260200190815260200160002060003373ffffffffffffffffffffffffffffffffffffffff1673ffffffffffffffffffffffffffffffffffffffff16815260200190815260200160002090508060040160009054906101000a900460ff166103a9576040517f08c379a00000000000000000000000000000000000000000000000000000000081526004016103a090612a10565b60405180910390fd5b3373ffffffffffffffffffffffffffffffffffffffff168160010160009054906101000a900473ffffffffffffffffffffffffffffffffffffffff1673ffffffffffffffffffffffffffffffffffffffff161461043b576040517f08c379a000000000000000000000000000000000000000000000000000000000815260040161043290612a7c565b60405180910390fd5b60008160040160006101000a81548160ff021916908315150217905550600081600301819055503373ffffffffffffffffffffffffffffffffffffffff168273ffffffffffffffffffffffffffffffffffffffff167f796ebe8ba5d6045889c70272f8e2dad46d17b785eebaf80794d94e1d7de0f08260405160405180910390a35050565b600381815481106104d057600080fd5b906000526020600020016000915054906101000a900473ffffffffffffffffffffffffffffffffffffffff1681565b6060600380548060200260200160405190810160405280929190818152602001828054801561058357602002820191906000526020600020905b8160009054906101000a900473ffffffffffffffffffffffffffffffffffffffff1673ffffffffffffffffffffffffffffffffffffffff1681526020019060010190808311610539575b5050505050905090565b600160205281600052604060002081815481106105a957600080fd5b906000526020600020016000915091509054906101000a900473ffffffffffffffffffffffffffffffffffffffff1681565b6000806000806000806000808973ffffffffffffffffffffffffffffffffffffffff1673ffffffffffffffffffffffffffffffffffffffff16815260200190815260200160002060008873ffffffffffffffffffffffffffffffffffffffff1673ffffffffffffffffffffffffffffffffffffffff16815260200190815260200160002090508060000160009054906101000a900473ffffffffffffffffffffffffffffffffffffffff168160010160009054906101000a900473ffffffffffffffffffffffffffffffffffffffff16826002015483600301548460040160009054906101000a900460ff1695509550955095509550509295509295909350565b60606000600160008473ffffffffffffffffffffffffffffffffffffffff1673ffffffffffffffffffffffffffffffffffffffff16815260200190815260200160002090506000818054905090506000805b82811015610826576000808773ffffffffffffffffffffffffffffffffffffffff1673ffffffffffffffffffffffffffffffffffffffff168152602001908152602001600020600085838154811061078957610788612a9c565b5b9060005260206000200160009054906101000a900473ffffffffffffffffffffffffffffffffffffffff1673ffffffffffffffffffffffffffffffffffffffff1673ffffffffffffffffffffffffffffffffffffffff16815260200190815260200160002060040160009054906101000a900460ff161561081357818061080f90612afa565b9250505b808061081e90612afa565b91505061072e565b5060008167ffffffffffffffff81111561084357610842612b42565b5b60405190808252806020026020018201604052801561087c57816020015b61086961243a565b8152602001906001900390816108615790505b5090506000805b84811015610b005760008682815481106108a05761089f612a9c565b5b9060005260206000200160009054906101000a900473ffffffffffffffffffffffffffffffffffffffff1690506000808a73ffffffffffffffffffffffffffffffffffffffff1673ffffffffffffffffffffffffffffffffffffffff16815260200190815260200160002060008273ffffffffffffffffffffffffffffffffffffffff1673ffffffffffffffffffffffffffffffffffffffff16815260200190815260200160002060040160009054906101000a900460ff1615610aec576000808a73ffffffffffffffffffffffffffffffffffffffff1673ffffffffffffffffffffffffffffffffffffffff16815260200190815260200160002060008273ffffffffffffffffffffffffffffffffffffffff1673ffffffffffffffffffffffffffffffffffffffff1681526020019081526020016000206040518060a00160405290816000820160009054906101000a900473ffffffffffffffffffffffffffffffffffffffff1673ffffffffffffffffffffffffffffffffffffffff1673ffffffffffffffffffffffffffffffffffffffff1681526020016001820160009054906101000a900473ffffffffffffffffffffffffffffffffffffffff1673ffffffffffffffffffffffffffffffffffffffff1673ffffffffffffffffffffffffffffffffffffffff16815260200160028201548152602001600382015481526020016004820160009054906101000a900460ff161515151581525050848481518110610ad257610ad1612a9c565b5b60200260200101819052508280610ae890612afa565b9350505b508080610af890612afa565b915050610883565b508195505050505050919050565b6000602052816000526040600020602052806000526040600020600091509150508060000160009054906101000a900473ffffffffffffffffffffffffffffffffffffffff16908060010160009054906101000a900473ffffffffffffffffffffffffffffffffffffffff16908060020154908060030154908060040160009054906101000a900460ff16905085565b60008060008573ffffffffffffffffffffffffffffffffffffffff1673ffffffffffffffffffffffffffffffffffffffff16815260200190815260200160002060008473ffffffffffffffffffffffffffffffffffffffff1673ffffffffffffffffffffffffffffffffffffffff16815260200190815260200160002090508060040160009054906101000a900460ff16610c6e576040517f08c379a0000000000000000000000000000000000000000000000000000000008152600401610c6590612bbd565b60405180910390fd5b60008211610cb1576040517f08c379a0000000000000000000000000000000000000000000000000000000008152600401610ca890612c29565b60405180910390fd5b8060030154821115610cf8576040517f08c379a0000000000000000000000000000000000000000000000000000000008152600401610cef90612cbb565b60405180910390fd5b600084905060008173ffffffffffffffffffffffffffffffffffffffff1663313ce5676040518163ffffffff1660e01b8152600401602060405180830381865afa158015610d4a573d6000803e3d6000fd5b505050506040513d601f19601f82011682018060405250810190610d6e9190612d14565b9050610d95604051806060016040528060248152602001613875602491398260ff166122bf565b600081600a610da49190612e74565b905060008111610de9576040517f08c379a0000000000000000000000000000000000000000000000000000000008152600401610de090612f0b565b60405180910390fd5b600081868660020154610dfc9190612f2b565b610e069190612f9c565b9050610e2a6040518060600160405280603281526020016138c860329139826122bf565b610e4c6040518060600160405280602e8152602001613847602e9139346122bf565b80341015610e8f576040517f08c379a0000000000000000000000000000000000000000000000000000000008152600401610e8690613019565b60405180910390fd5b610eb06040518060600160405280603a815260200161373c603a913961235b565b60008473ffffffffffffffffffffffffffffffffffffffff166370a08231896040518263ffffffff1660e01b8152600401610eeb91906125a3565b602060405180830381865afa158015610f08573d6000803e3d6000fd5b505050506040513d601f19601f82011682018060405250810190610f2c919061304e565b905060008573ffffffffffffffffffffffffffffffffffffffff1663dd62ed3e8a306040518363ffffffff1660e01b8152600401610f6b92919061307b565b602060405180830381865afa158015610f88573d6000803e3d6000fd5b505050506040513d601f19601f82011682018060405250810190610fac919061304e565b9050610fed6040518060400160405280601281526020017f20202053656c6c65722042616c616e63653a0000000000000000000000000000815250836122bf565b61102c6040518060400160405280601981526020017f2020204d61726b6574706c61636520416c6c6f77616e63653a00000000000000815250826122bf565b61106b6040518060400160405280601681526020017f202020416d6f756e7420746f207472616e736665723a00000000000000000000815250896122bf565b60008673ffffffffffffffffffffffffffffffffffffffff166323b872dd8b338c6040518463ffffffff1660e01b81526004016110aa939291906130a4565b6020604051808303816000875af11580156110c9573d6000803e3d6000fd5b505050506040513d601f19601f820116820180604052508101906110ed9190613107565b90508061112f576040517f08c379a000000000000000000000000000000000000000000000000000000000815260040161112690613180565b60405180910390fd5b6111506040518060600160405280602f8152602001613899602f913961235b565b8888600301600082825461116491906131a0565b9250508190555060008860030154036111ba5760008860040160006101000a81548160ff0219169083151502179055506111b56040518060600160405280603481526020016138136034913961235b565b6111e1565b6111e06040518060600160405280603a8152602001613776603a913989600301546122bf565b5b60008a73ffffffffffffffffffffffffffffffffffffffff168560405161120790613205565b60006040518083038185875af1925050503d8060008114611244576040519150601f19603f3d011682016040523d82523d6000602084013e611249565b606091505b505090508061128d576040517f08c379a000000000000000000000000000000000000000000000000000000000815260040161128490613266565b60405180910390fd5b6112ae6040518060600160405280603581526020016137b06035913961235b565b600085346112bc91906131a0565b9050600081111561137d576112e96040518060600160405280602a81526020016138fa602a9139826122bf565b3373ffffffffffffffffffffffffffffffffffffffff168160405161130d90613205565b60006040518083038185875af1925050503d806000811461134a576040519150601f19603f3d011682016040523d82523d6000602084013e61134f565b606091505b5050809250508161137c5761137b6040518060600160405280602e81526020016137e5602e913961235b565b5b5b8b73ffffffffffffffffffffffffffffffffffffffff163373ffffffffffffffffffffffffffffffffffffffff168e73ffffffffffffffffffffffffffffffffffffffff167f9bebbc37e8d894c68890c69315c3fbdc93cb7238480d8e8e842cda479b03c4528e8a6040516113f3929190613286565b60405180910390a450505050505050505050505050565b6000600460008373ffffffffffffffffffffffffffffffffffffffff1673ffffffffffffffffffffffffffffffffffffffff16815260200190815260200160002060009054906101000a900460ff169050919050565b600260008473ffffffffffffffffffffffffffffffffffffffff1673ffffffffffffffffffffffffffffffffffffffff16815260200190815260200160002060003373ffffffffffffffffffffffffffffffffffffffff1673ffffffffffffffffffffffffffffffffffffffff16815260200190815260200160002060009054906101000a900460ff1661162457600160008473ffffffffffffffffffffffffffffffffffffffff1673ffffffffffffffffffffffffffffffffffffffff168152602001908152602001600020339080600181540180825580915050600190039060005260206000200160009091909190916101000a81548173ffffffffffffffffffffffffffffffffffffffff021916908373ffffffffffffffffffffffffffffffffffffffff1602179055506001600260008573ffffffffffffffffffffffffffffffffffffffff1673ffffffffffffffffffffffffffffffffffffffff16815260200190815260200160002060003373ffffffffffffffffffffffffffffffffffffffff1673ffffffffffffffffffffffffffffffffffffffff16815260200190815260200160002060006101000a81548160ff0219169083151502179055505b60008060008573ffffffffffffffffffffffffffffffffffffffff1673ffffffffffffffffffffffffffffffffffffffff16815260200190815260200160002060003373ffffffffffffffffffffffffffffffffffffffff1673ffffffffffffffffffffffffffffffffffffffff16815260200190815260200160002090508060040160009054906101000a900460ff166116f4576040517f08c379a00000000000000000000000000000000000000000000000000000000081526004016116eb90613321565b60405180910390fd5b3373ffffffffffffffffffffffffffffffffffffffff168160010160009054906101000a900473ffffffffffffffffffffffffffffffffffffffff1673ffffffffffffffffffffffffffffffffffffffff1614611786576040517f08c379a000000000000000000000000000000000000000000000000000000000815260040161177d90612a7c565b60405180910390fd5b600084905081600301548311156119375760008173ffffffffffffffffffffffffffffffffffffffff1663dd62ed3e33306040518363ffffffff1660e01b81526004016117d492919061307b565b602060405180830381865afa1580156117f1573d6000803e3d6000fd5b505050506040513d601f19601f82011682018060405250810190611815919061304e565b90508381101561185a576040517f08c379a0000000000000000000000000000000000000000000000000000000008152600401611851906133b3565b60405180910390fd5b600083600301548561186c91906131a0565b905060008373ffffffffffffffffffffffffffffffffffffffff166370a08231336040518263ffffffff1660e01b81526004016118a991906125a3565b602060405180830381865afa1580156118c6573d6000803e3d6000fd5b505050506040513d601f19601f820116820180604052508101906118ea919061304e565b90508581101561192f576040517f08c379a000000000000000000000000000000000000000000000000000000000815260040161192690613445565b60405180910390fd5b50505061195e565b6000830361195d5760008260040160006101000a81548160ff0219169083151502179055505b5b836000808773ffffffffffffffffffffffffffffffffffffffff1673ffffffffffffffffffffffffffffffffffffffff16815260200190815260200160002060003373ffffffffffffffffffffffffffffffffffffffff1673ffffffffffffffffffffffffffffffffffffffff16815260200190815260200160002060020181905550826000808773ffffffffffffffffffffffffffffffffffffffff1673ffffffffffffffffffffffffffffffffffffffff16815260200190815260200160002060003373ffffffffffffffffffffffffffffffffffffffff1673ffffffffffffffffffffffffffffffffffffffff16815260200190815260200160002060030181905550600083116000808773ffffffffffffffffffffffffffffffffffffffff1673ffffffffffffffffffffffffffffffffffffffff16815260200190815260200160002060003373ffffffffffffffffffffffffffffffffffffffff1673ffffffffffffffffffffffffffffffffffffffff16815260200190815260200160002060040160006101000a81548160ff0219169083151502179055503373ffffffffffffffffffffffffffffffffffffffff168573ffffffffffffffffffffffffffffffffffffffff167f0af55bb2d5976cf0b636ba8903d1f3a441f6056ded6bc491dcfad6d2e0827e168686604051611b5c929190613286565b60405180910390a35050505050565b600073ffffffffffffffffffffffffffffffffffffffff168373ffffffffffffffffffffffffffffffffffffffff1603611bda576040517f08c379a0000000000000000000000000000000000000000000000000000000008152600401611bd1906134b1565b60405180910390fd5b60008211611c1d576040517f08c379a0000000000000000000000000000000000000000000000000000000008152600401611c149061351d565b60405180910390fd5b60008111611c60576040517f08c379a0000000000000000000000000000000000000000000000000000000008152600401611c5790612c29565b60405180910390fd5b600083905060008173ffffffffffffffffffffffffffffffffffffffff1663dd62ed3e33306040518363ffffffff1660e01b8152600401611ca292919061307b565b602060405180830381865afa158015611cbf573d6000803e3d6000fd5b505050506040513d601f19601f82011682018060405250810190611ce3919061304e565b905082811015611d28576040517f08c379a0000000000000000000000000000000000000000000000000000000008152600401611d1f906135af565b60405180910390fd5b60008273ffffffffffffffffffffffffffffffffffffffff166370a08231336040518263ffffffff1660e01b8152600401611d6391906125a3565b602060405180830381865afa158015611d80573d6000803e3d6000fd5b505050506040513d601f19601f82011682018060405250810190611da4919061304e565b905083811015611de9576040517f08c379a0000000000000000000000000000000000000000000000000000000008152600401611de09061361b565b60405180910390fd5b600260008773ffffffffffffffffffffffffffffffffffffffff1673ffffffffffffffffffffffffffffffffffffffff16815260200190815260200160002060003373ffffffffffffffffffffffffffffffffffffffff1673ffffffffffffffffffffffffffffffffffffffff16815260200190815260200160002060009054906101000a900460ff16611fad57600160008773ffffffffffffffffffffffffffffffffffffffff1673ffffffffffffffffffffffffffffffffffffffff168152602001908152602001600020339080600181540180825580915050600190039060005260206000200160009091909190916101000a81548173ffffffffffffffffffffffffffffffffffffffff021916908373ffffffffffffffffffffffffffffffffffffffff1602179055506001600260008873ffffffffffffffffffffffffffffffffffffffff1673ffffffffffffffffffffffffffffffffffffffff16815260200190815260200160002060003373ffffffffffffffffffffffffffffffffffffffff1673ffffffffffffffffffffffffffffffffffffffff16815260200190815260200160002060006101000a81548160ff0219169083151502179055505b600460008773ffffffffffffffffffffffffffffffffffffffff1673ffffffffffffffffffffffffffffffffffffffff16815260200190815260200160002060009054906101000a900460ff166120ba576003869080600181540180825580915050600190039060005260206000200160009091909190916101000a81548173ffffffffffffffffffffffffffffffffffffffff021916908373ffffffffffffffffffffffffffffffffffffffff1602179055506001600460008873ffffffffffffffffffffffffffffffffffffffff1673ffffffffffffffffffffffffffffffffffffffff16815260200190815260200160002060006101000a81548160ff0219169083151502179055505b6040518060a001604052808773ffffffffffffffffffffffffffffffffffffffff1681526020013373ffffffffffffffffffffffffffffffffffffffff168152602001868152602001858152602001600115158152506000808873ffffffffffffffffffffffffffffffffffffffff1673ffffffffffffffffffffffffffffffffffffffff16815260200190815260200160002060003373ffffffffffffffffffffffffffffffffffffffff1673ffffffffffffffffffffffffffffffffffffffff16815260200190815260200160002060008201518160000160006101000a81548173ffffffffffffffffffffffffffffffffffffffff021916908373ffffffffffffffffffffffffffffffffffffffff16021790555060208201518160010160006101000a81548173ffffffffffffffffffffffffffffffffffffffff021916908373ffffffffffffffffffffffffffffffffffffffff160217905550604082015181600201556060820151816003015560808201518160040160006101000a81548160ff0219169083151502179055509050503373ffffffffffffffffffffffffffffffffffffffff168673ffffffffffffffffffffffffffffffffffffffff167ff89e92ffa126a1220c78d929debeb20f1739d1e2409dd51b3cef72616273560987876040516122af929190613286565b60405180910390a3505050505050565b61235782826040516024016122d59291906136ba565b6040516020818303038152906040527fb60e72cc000000000000000000000000000000000000000000000000000000007bffffffffffffffffffffffffffffffffffffffffffffffffffffffff19166020820180517bffffffffffffffffffffffffffffffffffffffffffffffffffffffff83818316178352505050506123f4565b5050565b6123f18160405160240161236f91906136ea565b6040516020818303038152906040527f41304fac000000000000000000000000000000000000000000000000000000007bffffffffffffffffffffffffffffffffffffffffffffffffffffffff19166020820180517bffffffffffffffffffffffffffffffffffffffffffffffffffffffff83818316178352505050506123f4565b50565b61240b8161240361240e61242f565b63ffffffff16565b50565b60006a636f6e736f6c652e6c6f679050600080835160208501845afa505050565b612497819050919050565b6040518060a00160405280600073ffffffffffffffffffffffffffffffffffffffff168152602001600073ffffffffffffffffffffffffffffffffffffffff16815260200160008152602001600081526020016000151581525090565b61249f61370c565b565b600080fd5b600073ffffffffffffffffffffffffffffffffffffffff82169050919050565b60006124d1826124a6565b9050919050565b6124e1816124c6565b81146124ec57600080fd5b50565b6000813590506124fe816124d8565b92915050565b60006020828403121561251a576125196124a1565b5b6000612528848285016124ef565b91505092915050565b6000819050919050565b61254481612531565b811461254f57600080fd5b50565b6000813590506125618161253b565b92915050565b60006020828403121561257d5761257c6124a1565b5b600061258b84828501612552565b91505092915050565b61259d816124c6565b82525050565b60006020820190506125b86000830184612594565b92915050565b600081519050919050565b600082825260208201905092915050565b6000819050602082019050919050565b6125f3816124c6565b82525050565b600061260583836125ea565b60208301905092915050565b6000602082019050919050565b6000612629826125be565b61263381856125c9565b935061263e836125da565b8060005b8381101561266f57815161265688826125f9565b975061266183612611565b925050600181019050612642565b5085935050505092915050565b60006020820190508181036000830152612696818461261e565b905092915050565b600080604083850312156126b5576126b46124a1565b5b60006126c3858286016124ef565b92505060206126d485828601612552565b9150509250929050565b600080604083850312156126f5576126f46124a1565b5b6000612703858286016124ef565b9250506020612714858286016124ef565b9150509250929050565b61272781612531565b82525050565b60008115159050919050565b6127428161272d565b82525050565b600060a08201905061275d6000830188612594565b61276a6020830187612594565b612777604083018661271e565b612784606083018561271e565b6127916080830184612739565b9695505050505050565b600081519050919050565b600082825260208201905092915050565b6000819050602082019050919050565b6127d081612531565b82525050565b6127df8161272d565b82525050565b60a0820160008201516127fb60008501826125ea565b50602082015161280e60208501826125ea565b50604082015161282160408501826127c7565b50606082015161283460608501826127c7565b50608082015161284760808501826127d6565b50505050565b600061285983836127e5565b60a08301905092915050565b6000602082019050919050565b600061287d8261279b565b61288781856127a6565b9350612892836127b7565b8060005b838110156128c35781516128aa888261284d565b97506128b583612865565b925050600181019050612896565b5085935050505092915050565b600060208201905081810360008301526128ea8184612872565b905092915050565b60008060006060848603121561290b5761290a6124a1565b5b6000612919868287016124ef565b935050602061292a868287016124ef565b925050604061293b86828701612552565b9150509250925092565b600060208201905061295a6000830184612739565b92915050565b600080600060608486031215612979576129786124a1565b5b6000612987868287016124ef565b935050602061299886828701612552565b92505060406129a986828701612552565b9150509250925092565b600082825260208201905092915050565b7f4e6f20616374697665206c697374696e6720666f756e64000000000000000000600082015250565b60006129fa6017836129b3565b9150612a05826129c4565b602082019050919050565b60006020820190508181036000830152612a29816129ed565b9050919050565b7f4e6f74207468652073656c6c6572000000000000000000000000000000000000600082015250565b6000612a66600e836129b3565b9150612a7182612a30565b602082019050919050565b60006020820190508181036000830152612a9581612a59565b9050919050565b7f4e487b7100000000000000000000000000000000000000000000000000000000600052603260045260246000fd5b7f4e487b7100000000000000000000000000000000000000000000000000000000600052601160045260246000fd5b6000612b0582612531565b91507fffffffffffffffffffffffffffffffffffffffffffffffffffffffffffffffff8203612b3757612b36612acb565b5b600182019050919050565b7f4e487b7100000000000000000000000000000000000000000000000000000000600052604160045260246000fd5b7f4c697374696e67206973206e6f74206163746976650000000000000000000000600082015250565b6000612ba76015836129b3565b9150612bb282612b71565b602082019050919050565b60006020820190508181036000830152612bd681612b9a565b9050919050565b7f416d6f756e74206d7573742062652067726561746572207468616e2030000000600082015250565b6000612c13601d836129b3565b9150612c1e82612bdd565b602082019050919050565b60006020820190508181036000830152612c4281612c06565b9050919050565b7f4e6f7420656e6f75676820746f6b656e7320617661696c61626c6520696e206c60008201527f697374696e670000000000000000000000000000000000000000000000000000602082015250565b6000612ca56026836129b3565b9150612cb082612c49565b604082019050919050565b60006020820190508181036000830152612cd481612c98565b9050919050565b600060ff82169050919050565b612cf181612cdb565b8114612cfc57600080fd5b50565b600081519050612d0e81612ce8565b92915050565b600060208284031215612d2a57612d296124a1565b5b6000612d3884828501612cff565b91505092915050565b60008160011c9050919050565b6000808291508390505b6001851115612d9857808604811115612d7457612d73612acb565b5b6001851615612d835780820291505b8081029050612d9185612d41565b9450612d58565b94509492505050565b600082612db15760019050612e6d565b81612dbf5760009050612e6d565b8160018114612dd55760028114612ddf57612e0e565b6001915050612e6d565b60ff841115612df157612df0612acb565b5b8360020a915084821115612e0857612e07612acb565b5b50612e6d565b5060208310610133831016604e8410600b8410161715612e435782820a905083811115612e3e57612e3d612acb565b5b612e6d565b612e508484846001612d4e565b92509050818404811115612e6757612e66612acb565b5b81810290505b9392505050565b6000612e7f82612531565b9150612e8a83612cdb565b9250612eb77fffffffffffffffffffffffffffffffffffffffffffffffffffffffffffffffff8484612da1565b905092915050565b7f446563696d616c20666163746f722063616e6e6f74206265207a65726f000000600082015250565b6000612ef5601d836129b3565b9150612f0082612ebf565b602082019050919050565b60006020820190508181036000830152612f2481612ee8565b9050919050565b6000612f3682612531565b9150612f4183612531565b9250828202612f4f81612531565b91508282048414831517612f6657612f65612acb565b5b5092915050565b7f4e487b7100000000000000000000000000000000000000000000000000000000600052601260045260246000fd5b6000612fa782612531565b9150612fb283612531565b925082612fc257612fc1612f6d565b5b828204905092915050565b7f496e73756666696369656e742066756e64732073656e74000000000000000000600082015250565b60006130036017836129b3565b915061300e82612fcd565b602082019050919050565b6000602082019050818103600083015261303281612ff6565b9050919050565b6000815190506130488161253b565b92915050565b600060208284031215613064576130636124a1565b5b600061307284828501613039565b91505092915050565b60006040820190506130906000830185612594565b61309d6020830184612594565b9392505050565b60006060820190506130b96000830186612594565b6130c66020830185612594565b6130d3604083018461271e565b949350505050565b6130e48161272d565b81146130ef57600080fd5b50565b600081519050613101816130db565b92915050565b60006020828403121561311d5761311c6124a1565b5b600061312b848285016130f2565b91505092915050565b7f546f6b656e207472616e73666572206661696c65640000000000000000000000600082015250565b600061316a6015836129b3565b915061317582613134565b602082019050919050565b600060208201905081810360008301526131998161315d565b9050919050565b60006131ab82612531565b91506131b683612531565b92508282039050818111156131ce576131cd612acb565b5b92915050565b600081905092915050565b50565b60006131ef6000836131d4565b91506131fa826131df565b600082019050919050565b6000613210826131e2565b9150819050919050565b7f4661696c656420746f2073656e642045544820746f2073656c6c657200000000600082015250565b6000613250601c836129b3565b915061325b8261321a565b602082019050919050565b6000602082019050818103600083015261327f81613243565b9050919050565b600060408201905061329b600083018561271e565b6132a8602083018461271e565b9392505050565b7f4e6f20616374697665206c697374696e6720666f756e6420746f20757064617460008201527f6500000000000000000000000000000000000000000000000000000000000000602082015250565b600061330b6021836129b3565b9150613316826132af565b604082019050919050565b6000602082019050818103600083015261333a816132fe565b9050919050565b7f496e73756666696369656e7420746f74616c20616c6c6f77616e636520666f7260008201527f206e657720616d6f756e74000000000000000000000000000000000000000000602082015250565b600061339d602b836129b3565b91506133a882613341565b604082019050919050565b600060208201905081810360008301526133cc81613390565b9050919050565b7f496e73756666696369656e742062616c616e636520666f72206e6577206c697360008201527f74696e6720616d6f756e74000000000000000000000000000000000000000000602082015250565b600061342f602b836129b3565b915061343a826133d3565b604082019050919050565b6000602082019050818103600083015261345e81613422565b9050919050565b7f496e76616c696420746f6b656e20616464726573730000000000000000000000600082015250565b600061349b6015836129b3565b91506134a682613465565b602082019050919050565b600060208201905081810360008301526134ca8161348e565b9050919050565b7f5072696365206d7573742062652067726561746572207468616e203000000000600082015250565b6000613507601c836129b3565b9150613512826134d1565b602082019050919050565b60006020820190508181036000830152613536816134fa565b9050919050565b7f4e6f7420656e6f75676820746f6b656e7320617070726f76656420666f72207360008201527f616c650000000000000000000000000000000000000000000000000000000000602082015250565b60006135996023836129b3565b91506135a48261353d565b604082019050919050565b600060208201905081810360008301526135c88161358c565b9050919050565b7f4e6f7420656e6f75676820746f6b656e7320696e20796f75722077616c6c6574600082015250565b60006136056020836129b3565b9150613610826135cf565b602082019050919050565b60006020820190508181036000830152613634816135f8565b9050919050565b600081519050919050565b60005b83811015613664578082015181840152602081019050613649565b60008484015250505050565b6000601f19601f8301169050919050565b600061368c8261363b565b61369681856129b3565b93506136a6818560208601613646565b6136af81613670565b840191505092915050565b600060408201905081810360008301526136d48185613681565b90506136e3602083018461271e565b9392505050565b600060208201905081810360008301526137048184613681565b905092915050565b7f4e487b7100000000000000000000000000000000000000000000000000000000600052605160045260246000fdfe436865636b696e672073656c6c65722062616c616e636520616e6420616c6c6f77616e6365206265666f7265207472616e7366657246726f6d3a436f6e747261637420627579546f6b656e73202d204c697374696e6720757064617465642e2052656d61696e696e6720617661696c61626c653a436f6e747261637420627579546f6b656e73202d204554482073656e7420746f2073656c6c6572207375636365737366756c6c792e5761726e696e673a204661696c656420746f20726566756e64206578636573732045544820746f2062757965722e436f6e747261637420627579546f6b656e73202d204c697374696e672064656163746976617465642028736f6c64206f7574292e436f6e747261637420627579546f6b656e73202d205265636569766564206d73672e76616c75652028574549293a436f6e747261637420627579546f6b656e73202d20546f6b656e20446563696d616c733a436f6e747261637420627579546f6b656e73202d20546f6b656e207472616e73666572207375636365737366756c2e436f6e747261637420627579546f6b656e73202d2043616c63756c6174656420546f74616c2050726963652028574549293a436f6e747261637420627579546f6b656e73202d20526566756e64696e6720657863657373204554483aa2646970667358221220c07fe39db732c449c8fef87c9c5f36adf097ec41b436e4c08d586c28a6bc144a64736f6c63430008150033",
  "linkReferences": {},
  "deployedLinkReferences": {}
}