{
    "_format": "hh-sol-artifact-1",
    "contractName": "TokenMarketplace",
    "sourceName": "contracts/TokenMarketplace.sol",
    "abi": [
        {
            "anonymous": false,
            "inputs": [
                {
                    "indexed": true,
                    "internalType": "address",
                    "name": "tokenAddress",
                    "type": "address"
                },
                {
                    "indexed": true,
                    "internalType": "address",
                    "name": "seller",
                    "type": "address"
                }
            ],
            "name": "ListingCancelled",
            "type": "event"
        },
        {
            "anonymous": false,
            "inputs": [
                {
                    "indexed": true,
                    "internalType": "address",
                    "name": "tokenAddress",
                    "type": "address"
                },
                {
                    "indexed": true,
                    "internalType": "address",
                    "name": "seller",
                    "type": "address"
                },
                {
                    "indexed": false,
                    "internalType": "uint256",
                    "name": "pricePerToken",
                    "type": "uint256"
                },
                {
                    "indexed": false,
                    "internalType": "uint256",
                    "name": "amount",
                    "type": "uint256"
                }
            ],
            "name": "ListingUpdated",
            "type": "event"
        },
        {
            "anonymous": false,
            "inputs": [
                {
                    "indexed": true,
                    "internalType": "address",
                    "name": "tokenAddress",
                    "type": "address"
                },
                {
                    "indexed": true,
                    "internalType": "address",
                    "name": "seller",
                    "type": "address"
                },
                {
                    "indexed": false,
                    "internalType": "uint256",
                    "name": "pricePerToken",
                    "type": "uint256"
                },
                {
                    "indexed": false,
                    "internalType": "uint256",
                    "name": "amount",
                    "type": "uint256"
                }
            ],
            "name": "TokenListed",
            "type": "event"
        },
        {
            "anonymous": false,
            "inputs": [
                {
                    "indexed": true,
                    "internalType": "address",
                    "name": "tokenAddress",
                    "type": "address"
                },
                {
                    "indexed": true,
                    "internalType": "address",
                    "name": "buyer",
                    "type": "address"
                },
                {
                    "indexed": true,
                    "internalType": "address",
                    "name": "seller",
                    "type": "address"
                },
                {
                    "indexed": false,
                    "internalType": "uint256",
                    "name": "amount",
                    "type": "uint256"
                },
                {
                    "indexed": false,
                    "internalType": "uint256",
                    "name": "totalPrice",
                    "type": "uint256"
                }
            ],
            "name": "TokensPurchased",
            "type": "event"
        },
        {
            "inputs": [
                {
                    "internalType": "address",
                    "name": "tokenAddress",
                    "type": "address"
                },
                {
                    "internalType": "address",
                    "name": "seller",
                    "type": "address"
                },
                {
                    "internalType": "uint256",
                    "name": "amount",
                    "type": "uint256"
                }
            ],
            "name": "buyTokens",
            "outputs": [],
            "stateMutability": "payable",
            "type": "function"
        },
        {
            "inputs": [
                {
                    "internalType": "address",
                    "name": "tokenAddress",
                    "type": "address"
                }
            ],
            "name": "cancelListing",
            "outputs": [],
            "stateMutability": "nonpayable",
            "type": "function"
        },
        {
            "inputs": [],
            "name": "getAllListedTokens",
            "outputs": [
                {
                    "internalType": "address[]",
                    "name": "",
                    "type": "address[]"
                }
            ],
            "stateMutability": "view",
            "type": "function"
        },
        {
            "inputs": [
                {
                    "internalType": "address",
                    "name": "tokenAddress",
                    "type": "address"
                },
                {
                    "internalType": "address",
                    "name": "seller",
                    "type": "address"
                }
            ],
            "name": "getListing",
            "outputs": [
                {
                    "internalType": "address",
                    "name": "",
                    "type": "address"
                },
                {
                    "internalType": "address",
                    "name": "",
                    "type": "address"
                },
                {
                    "internalType": "uint256",
                    "name": "",
                    "type": "uint256"
                },
                {
                    "internalType": "uint256",
                    "name": "",
                    "type": "uint256"
                },
                {
                    "internalType": "bool",
                    "name": "",
                    "type": "bool"
                }
            ],
            "stateMutability": "view",
            "type": "function"
        },
        {
            "inputs": [
                {
                    "internalType": "address",
                    "name": "tokenAddress",
                    "type": "address"
                }
            ],
            "name": "isTokenListed",
            "outputs": [
                {
                    "internalType": "bool",
                    "name": "",
                    "type": "bool"
                }
            ],
            "stateMutability": "view",
            "type": "function"
        },
        {
            "inputs": [
                {
                    "internalType": "address",
                    "name": "tokenAddress",
                    "type": "address"
                },
                {
                    "internalType": "uint256",
                    "name": "pricePerToken",
                    "type": "uint256"
                },
                {
                    "internalType": "uint256",
                    "name": "amount",
                    "type": "uint256"
                }
            ],
            "name": "listTokens",
            "outputs": [],
            "stateMutability": "nonpayable",
            "type": "function"
        },
        {
            "inputs": [
                {
                    "internalType": "uint256",
                    "name": "",
                    "type": "uint256"
                }
            ],
            "name": "listedTokens",
            "outputs": [
                {
                    "internalType": "address",
                    "name": "",
                    "type": "address"
                }
            ],
            "stateMutability": "view",
            "type": "function"
        },
        {
            "inputs": [
                {
                    "internalType": "address",
                    "name": "",
                    "type": "address"
                },
                {
                    "internalType": "address",
                    "name": "",
                    "type": "address"
                }
            ],
            "name": "listings",
            "outputs": [
                {
                    "internalType": "address",
                    "name": "tokenAddress",
                    "type": "address"
                },
                {
                    "internalType": "address",
                    "name": "seller",
                    "type": "address"
                },
                {
                    "internalType": "uint256",
                    "name": "pricePerToken",
                    "type": "uint256"
                },
                {
                    "internalType": "uint256",
                    "name": "availableTokens",
                    "type": "uint256"
                },
                {
                    "internalType": "bool",
                    "name": "active",
                    "type": "bool"
                }
            ],
            "stateMutability": "view",
            "type": "function"
        },
        {
            "inputs": [
                {
                    "internalType": "address",
                    "name": "tokenAddress",
                    "type": "address"
                },
                {
                    "internalType": "uint256",
                    "name": "newPricePerToken",
                    "type": "uint256"
                },
                {
                    "internalType": "uint256",
                    "name": "newAmount",
                    "type": "uint256"
                }
            ],
            "name": "updateListing",
            "outputs": [],
            "stateMutability": "nonpayable",
            "type": "function"
        }
    ],
    "bytecode": "0x608060405234801561001057600080fd5b50612c51806100206000396000f3fe6080604052600436106100865760003560e01c8063db931fcd11610059578063db931fcd1461015d578063dcefa5381461019e578063e69ec653146101ba578063f772adf1146101f7578063fa982ad11461022057610086565b80634724da6f1461008b5780635a9d1ac3146100b4578063a50d9983146100f1578063b369f6ad1461011c575b600080fd5b34801561009757600080fd5b506100b260048036038101906100ad9190611b93565b610249565b005b3480156100c057600080fd5b506100db60048036038101906100d69190611bf6565b610430565b6040516100e89190611c32565b60405180910390f35b3480156100fd57600080fd5b5061010661046f565b6040516101139190611d0b565b60405180910390f35b34801561012857600080fd5b50610143600480360381019061013e9190611d2d565b6104fd565b604051610154959493929190611d97565b60405180910390f35b34801561016957600080fd5b50610184600480360381019061017f9190611d2d565b6105fe565b604051610195959493929190611d97565b60405180910390f35b6101b860048036038101906101b39190611dea565b61068e565b005b3480156101c657600080fd5b506101e160048036038101906101dc9190611b93565b610f42565b6040516101ee9190611e3d565b60405180910390f35b34801561020357600080fd5b5061021e60048036038101906102199190611e58565b610f98565b005b34801561022c57600080fd5b5061024760048036038101906102429190611e58565b61141b565b005b60008060008373ffffffffffffffffffffffffffffffffffffffff1673ffffffffffffffffffffffffffffffffffffffff16815260200190815260200160002060003373ffffffffffffffffffffffffffffffffffffffff1673ffffffffffffffffffffffffffffffffffffffff16815260200190815260200160002090508060040160009054906101000a900460ff16610319576040517f08c379a000000000000000000000000000000000000000000000000000000000815260040161031090611f08565b60405180910390fd5b3373ffffffffffffffffffffffffffffffffffffffff168160010160009054906101000a900473ffffffffffffffffffffffffffffffffffffffff1673ffffffffffffffffffffffffffffffffffffffff16146103ab576040517f08c379a00000000000000000000000000000000000000000000000000000000081526004016103a290611f74565b60405180910390fd5b60008160040160006101000a81548160ff021916908315150217905550600081600301819055503373ffffffffffffffffffffffffffffffffffffffff168273ffffffffffffffffffffffffffffffffffffffff167f796ebe8ba5d6045889c70272f8e2dad46d17b785eebaf80794d94e1d7de0f08260405160405180910390a35050565b6001818154811061044057600080fd5b906000526020600020016000915054906101000a900473ffffffffffffffffffffffffffffffffffffffff1681565b606060018054806020026020016040519081016040528092919081815260200182805480156104f357602002820191906000526020600020905b8160009054906101000a900473ffffffffffffffffffffffffffffffffffffffff1673ffffffffffffffffffffffffffffffffffffffff16815260200190600101908083116104a9575b5050505050905090565b6000806000806000806000808973ffffffffffffffffffffffffffffffffffffffff1673ffffffffffffffffffffffffffffffffffffffff16815260200190815260200160002060008873ffffffffffffffffffffffffffffffffffffffff1673ffffffffffffffffffffffffffffffffffffffff16815260200190815260200160002090508060000160009054906101000a900473ffffffffffffffffffffffffffffffffffffffff168160010160009054906101000a900473ffffffffffffffffffffffffffffffffffffffff16826002015483600301548460040160009054906101000a900460ff1695509550955095509550509295509295909350565b6000602052816000526040600020602052806000526040600020600091509150508060000160009054906101000a900473ffffffffffffffffffffffffffffffffffffffff16908060010160009054906101000a900473ffffffffffffffffffffffffffffffffffffffff16908060020154908060030154908060040160009054906101000a900460ff16905085565b60008060008573ffffffffffffffffffffffffffffffffffffffff1673ffffffffffffffffffffffffffffffffffffffff16815260200190815260200160002060008473ffffffffffffffffffffffffffffffffffffffff1673ffffffffffffffffffffffffffffffffffffffff16815260200190815260200160002090508060040160009054906101000a900460ff1661075e576040517f08c379a000000000000000000000000000000000000000000000000000000000815260040161075590611fe0565b60405180910390fd5b600082116107a1576040517f08c379a00000000000000000000000000000000000000000000000000000000081526004016107989061204c565b60405180910390fd5b80600301548211156107e8576040517f08c379a00000000000000000000000000000000000000000000000000000000081526004016107df906120de565b60405180910390fd5b600084905060008173ffffffffffffffffffffffffffffffffffffffff1663313ce5676040518163ffffffff1660e01b8152600401602060405180830381865afa15801561083a573d6000803e3d6000fd5b505050506040513d601f19601f8201168201806040525081019061085e9190612137565b9050610885604051806060016040528060248152602001612b40602491398260ff166119ab565b600081600a61089491906122c6565b9050600081116108d9576040517f08c379a00000000000000000000000000000000000000000000000000000000081526004016108d09061235d565b60405180910390fd5b6000818686600201546108ec919061237d565b6108f691906123ee565b905061091e6040518060600160405280602f8152602001612b11602f913986600201546119ab565b6109406040518060600160405280602d8152602001612b93602d9139876119ab565b610962604051806060016040528060328152602001612bc060329139826119ab565b6109846040518060600160405280602e8152602001612ae3602e9139346119ab565b803410156109c7576040517f08c379a00000000000000000000000000000000000000000000000000000000081526004016109be9061246b565b60405180910390fd5b6109e86040518060600160405280603a81526020016129d8603a9139611a47565b60008473ffffffffffffffffffffffffffffffffffffffff166370a08231896040518263ffffffff1660e01b8152600401610a239190611c32565b602060405180830381865afa158015610a40573d6000803e3d6000fd5b505050506040513d601f19601f82011682018060405250810190610a6491906124a0565b905060008573ffffffffffffffffffffffffffffffffffffffff1663dd62ed3e8a306040518363ffffffff1660e01b8152600401610aa39291906124cd565b602060405180830381865afa158015610ac0573d6000803e3d6000fd5b505050506040513d601f19601f82011682018060405250810190610ae491906124a0565b9050610b256040518060400160405280601281526020017f20202053656c6c65722042616c616e63653a0000000000000000000000000000815250836119ab565b610b646040518060400160405280601981526020017f2020204d61726b6574706c61636520416c6c6f77616e63653a00000000000000815250826119ab565b610ba36040518060400160405280601681526020017f202020416d6f756e7420746f207472616e736665723a00000000000000000000815250896119ab565b60008673ffffffffffffffffffffffffffffffffffffffff166323b872dd8b338c6040518463ffffffff1660e01b8152600401610be2939291906124f6565b6020604051808303816000875af1158015610c01573d6000803e3d6000fd5b505050506040513d601f19601f82011682018060405250810190610c259190612559565b905080610c67576040517f08c379a0000000000000000000000000000000000000000000000000000000008152600401610c5e906125d2565b60405180910390fd5b610c886040518060600160405280602f8152602001612b64602f9139611a47565b88886003016000828254610c9c91906125f2565b925050819055506000886003015403610cf25760008860040160006101000a81548160ff021916908315150217905550610ced604051806060016040528060348152602001612aaf60349139611a47565b610d19565b610d186040518060600160405280603a8152602001612a12603a913989600301546119ab565b5b60008a73ffffffffffffffffffffffffffffffffffffffff1685604051610d3f90612657565b60006040518083038185875af1925050503d8060008114610d7c576040519150601f19603f3d011682016040523d82523d6000602084013e610d81565b606091505b5050905080610dc5576040517f08c379a0000000000000000000000000000000000000000000000000000000008152600401610dbc906126b8565b60405180910390fd5b610de6604051806060016040528060358152602001612a4c60359139611a47565b60008534610df491906125f2565b90506000811115610eb557610e216040518060600160405280602a8152602001612bf2602a9139826119ab565b3373ffffffffffffffffffffffffffffffffffffffff1681604051610e4590612657565b60006040518083038185875af1925050503d8060008114610e82576040519150601f19603f3d011682016040523d82523d6000602084013e610e87565b606091505b50508092505081610eb457610eb36040518060600160405280602e8152602001612a81602e9139611a47565b5b5b8b73ffffffffffffffffffffffffffffffffffffffff163373ffffffffffffffffffffffffffffffffffffffff168e73ffffffffffffffffffffffffffffffffffffffff167f9bebbc37e8d894c68890c69315c3fbdc93cb7238480d8e8e842cda479b03c4528e8a604051610f2b9291906126d8565b60405180910390a450505050505050505050505050565b6000600260008373ffffffffffffffffffffffffffffffffffffffff1673ffffffffffffffffffffffffffffffffffffffff16815260200190815260200160002060009054906101000a900460ff169050919050565b60008060008573ffffffffffffffffffffffffffffffffffffffff1673ffffffffffffffffffffffffffffffffffffffff16815260200190815260200160002060003373ffffffffffffffffffffffffffffffffffffffff1673ffffffffffffffffffffffffffffffffffffffff16815260200190815260200160002090508060040160009054906101000a900460ff16611068576040517f08c379a000000000000000000000000000000000000000000000000000000000815260040161105f90611f08565b60405180910390fd5b3373ffffffffffffffffffffffffffffffffffffffff168160010160009054906101000a900473ffffffffffffffffffffffffffffffffffffffff1673ffffffffffffffffffffffffffffffffffffffff16146110fa576040517f08c379a00000000000000000000000000000000000000000000000000000000081526004016110f190611f74565b60405180910390fd5b600084905081600301548311156112a757600082600301548461111d91906125f2565b905060008273ffffffffffffffffffffffffffffffffffffffff1663dd62ed3e33306040518363ffffffff1660e01b815260040161115c9291906124cd565b602060405180830381865afa158015611179573d6000803e3d6000fd5b505050506040513d601f19601f8201168201806040525081019061119d91906124a0565b9050818110156111e2576040517f08c379a00000000000000000000000000000000000000000000000000000000081526004016111d990612773565b60405180910390fd5b60008373ffffffffffffffffffffffffffffffffffffffff166370a08231336040518263ffffffff1660e01b815260040161121d9190611c32565b602060405180830381865afa15801561123a573d6000803e3d6000fd5b505050506040513d601f19601f8201168201806040525081019061125e91906124a0565b9050828110156112a3576040517f08c379a000000000000000000000000000000000000000000000000000000000815260040161129a906127df565b60405180910390fd5b5050505b836000808773ffffffffffffffffffffffffffffffffffffffff1673ffffffffffffffffffffffffffffffffffffffff16815260200190815260200160002060003373ffffffffffffffffffffffffffffffffffffffff1673ffffffffffffffffffffffffffffffffffffffff16815260200190815260200160002060020181905550826000808773ffffffffffffffffffffffffffffffffffffffff1673ffffffffffffffffffffffffffffffffffffffff16815260200190815260200160002060003373ffffffffffffffffffffffffffffffffffffffff1673ffffffffffffffffffffffffffffffffffffffff168152602001908152602001600020600301819055503373ffffffffffffffffffffffffffffffffffffffff168573ffffffffffffffffffffffffffffffffffffffff167f0af55bb2d5976cf0b636ba8903d1f3a441f6056ded6bc491dcfad6d2e0827e16868660405161140c9291906126d8565b60405180910390a35050505050565b600073ffffffffffffffffffffffffffffffffffffffff168373ffffffffffffffffffffffffffffffffffffffff160361148a576040517f08c379a00000000000000000000000000000000000000000000000000000000081526004016114819061284b565b60405180910390fd5b600082116114cd576040517f08c379a00000000000000000000000000000000000000000000000000000000081526004016114c4906128b7565b60405180910390fd5b60008111611510576040517f08c379a00000000000000000000000000000000000000000000000000000000081526004016115079061204c565b60405180910390fd5b600083905060008173ffffffffffffffffffffffffffffffffffffffff1663dd62ed3e33306040518363ffffffff1660e01b81526004016115529291906124cd565b602060405180830381865afa15801561156f573d6000803e3d6000fd5b505050506040513d601f19601f8201168201806040525081019061159391906124a0565b9050828110156115d8576040517f08c379a00000000000000000000000000000000000000000000000000000000081526004016115cf90612773565b60405180910390fd5b60008273ffffffffffffffffffffffffffffffffffffffff166370a08231336040518263ffffffff1660e01b81526004016116139190611c32565b602060405180830381865afa158015611630573d6000803e3d6000fd5b505050506040513d601f19601f8201168201806040525081019061165491906124a0565b905083811015611699576040517f08c379a0000000000000000000000000000000000000000000000000000000008152600401611690906127df565b60405180910390fd5b600260008773ffffffffffffffffffffffffffffffffffffffff1673ffffffffffffffffffffffffffffffffffffffff16815260200190815260200160002060009054906101000a900460ff166117a6576001869080600181540180825580915050600190039060005260206000200160009091909190916101000a81548173ffffffffffffffffffffffffffffffffffffffff021916908373ffffffffffffffffffffffffffffffffffffffff1602179055506001600260008873ffffffffffffffffffffffffffffffffffffffff1673ffffffffffffffffffffffffffffffffffffffff16815260200190815260200160002060006101000a81548160ff0219169083151502179055505b6040518060a001604052808773ffffffffffffffffffffffffffffffffffffffff1681526020013373ffffffffffffffffffffffffffffffffffffffff168152602001868152602001858152602001600115158152506000808873ffffffffffffffffffffffffffffffffffffffff1673ffffffffffffffffffffffffffffffffffffffff16815260200190815260200160002060003373ffffffffffffffffffffffffffffffffffffffff1673ffffffffffffffffffffffffffffffffffffffff16815260200190815260200160002060008201518160000160006101000a81548173ffffffffffffffffffffffffffffffffffffffff021916908373ffffffffffffffffffffffffffffffffffffffff16021790555060208201518160010160006101000a81548173ffffffffffffffffffffffffffffffffffffffff021916908373ffffffffffffffffffffffffffffffffffffffff160217905550604082015181600201556060820151816003015560808201518160040160006101000a81548160ff0219169083151502179055509050503373ffffffffffffffffffffffffffffffffffffffff168673ffffffffffffffffffffffffffffffffffffffff167ff89e92ffa126a1220c78d929debeb20f1739d1e2409dd51b3cef726162735609878760405161199b9291906126d8565b60405180910390a3505050505050565b611a4382826040516024016119c1929190612956565b6040516020818303038152906040527fb60e72cc000000000000000000000000000000000000000000000000000000007bffffffffffffffffffffffffffffffffffffffffffffffffffffffff19166020820180517bffffffffffffffffffffffffffffffffffffffffffffffffffffffff8381831617835250505050611ae0565b5050565b611add81604051602401611a5b9190612986565b6040516020818303038152906040527f41304fac000000000000000000000000000000000000000000000000000000007bffffffffffffffffffffffffffffffffffffffffffffffffffffffff19166020820180517bffffffffffffffffffffffffffffffffffffffffffffffffffffffff8381831617835250505050611ae0565b50565b611af781611aef611afa611b1b565b63ffffffff16565b50565b60006a636f6e736f6c652e6c6f679050600080835160208501845afa505050565b611b26819050919050565b611b2e6129a8565b565b600080fd5b600073ffffffffffffffffffffffffffffffffffffffff82169050919050565b6000611b6082611b35565b9050919050565b611b7081611b55565b8114611b7b57600080fd5b50565b600081359050611b8d81611b67565b92915050565b600060208284031215611ba957611ba8611b30565b5b6000611bb784828501611b7e565b91505092915050565b6000819050919050565b611bd381611bc0565b8114611bde57600080fd5b50565b600081359050611bf081611bca565b92915050565b600060208284031215611c0c57611c0b611b30565b5b6000611c1a84828501611be1565b91505092915050565b611c2c81611b55565b82525050565b6000602082019050611c476000830184611c23565b92915050565b600081519050919050565b600082825260208201905092915050565b6000819050602082019050919050565b611c8281611b55565b82525050565b6000611c948383611c79565b60208301905092915050565b6000602082019050919050565b6000611cb882611c4d565b611cc28185611c58565b9350611ccd83611c69565b8060005b83811015611cfe578151611ce58882611c88565b9750611cf083611ca0565b925050600181019050611cd1565b5085935050505092915050565b60006020820190508181036000830152611d258184611cad565b905092915050565b60008060408385031215611d4457611d43611b30565b5b6000611d5285828601611b7e565b9250506020611d6385828601611b7e565b9150509250929050565b611d7681611bc0565b82525050565b60008115159050919050565b611d9181611d7c565b82525050565b600060a082019050611dac6000830188611c23565b611db96020830187611c23565b611dc66040830186611d6d565b611dd36060830185611d6d565b611de06080830184611d88565b9695505050505050565b600080600060608486031215611e0357611e02611b30565b5b6000611e1186828701611b7e565b9350506020611e2286828701611b7e565b9250506040611e3386828701611be1565b9150509250925092565b6000602082019050611e526000830184611d88565b92915050565b600080600060608486031215611e7157611e70611b30565b5b6000611e7f86828701611b7e565b9350506020611e9086828701611be1565b9250506040611ea186828701611be1565b9150509250925092565b600082825260208201905092915050565b7f4e6f20616374697665206c697374696e6720666f756e64000000000000000000600082015250565b6000611ef2601783611eab565b9150611efd82611ebc565b602082019050919050565b60006020820190508181036000830152611f2181611ee5565b9050919050565b7f4e6f74207468652073656c6c6572000000000000000000000000000000000000600082015250565b6000611f5e600e83611eab565b9150611f6982611f28565b602082019050919050565b60006020820190508181036000830152611f8d81611f51565b9050919050565b7f4c697374696e67206973206e6f74206163746976650000000000000000000000600082015250565b6000611fca601583611eab565b9150611fd582611f94565b602082019050919050565b60006020820190508181036000830152611ff981611fbd565b9050919050565b7f416d6f756e74206d7573742062652067726561746572207468616e2030000000600082015250565b6000612036601d83611eab565b915061204182612000565b602082019050919050565b6000602082019050818103600083015261206581612029565b9050919050565b7f4e6f7420656e6f75676820746f6b656e7320617661696c61626c6520696e206c60008201527f697374696e670000000000000000000000000000000000000000000000000000602082015250565b60006120c8602683611eab565b91506120d38261206c565b604082019050919050565b600060208201905081810360008301526120f7816120bb565b9050919050565b600060ff82169050919050565b612114816120fe565b811461211f57600080fd5b50565b6000815190506121318161210b565b92915050565b60006020828403121561214d5761214c611b30565b5b600061215b84828501612122565b91505092915050565b7f4e487b7100000000000000000000000000000000000000000000000000000000600052601160045260246000fd5b60008160011c9050919050565b6000808291508390505b60018511156121ea578086048111156121c6576121c5612164565b5b60018516156121d55780820291505b80810290506121e385612193565b94506121aa565b94509492505050565b60008261220357600190506122bf565b8161221157600090506122bf565b8160018114612227576002811461223157612260565b60019150506122bf565b60ff84111561224357612242612164565b5b8360020a91508482111561225a57612259612164565b5b506122bf565b5060208310610133831016604e8410600b84101617156122955782820a9050838111156122905761228f612164565b5b6122bf565b6122a284848460016121a0565b925090508184048111156122b9576122b8612164565b5b81810290505b9392505050565b60006122d182611bc0565b91506122dc836120fe565b92506123097fffffffffffffffffffffffffffffffffffffffffffffffffffffffffffffffff84846121f3565b905092915050565b7f446563696d616c20666163746f722063616e6e6f74206265207a65726f000000600082015250565b6000612347601d83611eab565b915061235282612311565b602082019050919050565b600060208201905081810360008301526123768161233a565b9050919050565b600061238882611bc0565b915061239383611bc0565b92508282026123a181611bc0565b915082820484148315176123b8576123b7612164565b5b5092915050565b7f4e487b7100000000000000000000000000000000000000000000000000000000600052601260045260246000fd5b60006123f982611bc0565b915061240483611bc0565b925082612414576124136123bf565b5b828204905092915050565b7f496e73756666696369656e742066756e64732073656e74000000000000000000600082015250565b6000612455601783611eab565b91506124608261241f565b602082019050919050565b6000602082019050818103600083015261248481612448565b9050919050565b60008151905061249a81611bca565b92915050565b6000602082840312156124b6576124b5611b30565b5b60006124c48482850161248b565b91505092915050565b60006040820190506124e26000830185611c23565b6124ef6020830184611c23565b9392505050565b600060608201905061250b6000830186611c23565b6125186020830185611c23565b6125256040830184611d6d565b949350505050565b61253681611d7c565b811461254157600080fd5b50565b6000815190506125538161252d565b92915050565b60006020828403121561256f5761256e611b30565b5b600061257d84828501612544565b91505092915050565b7f546f6b656e207472616e73666572206661696c65640000000000000000000000600082015250565b60006125bc601583611eab565b91506125c782612586565b602082019050919050565b600060208201905081810360008301526125eb816125af565b9050919050565b60006125fd82611bc0565b915061260883611bc0565b92508282039050818111156126205761261f612164565b5b92915050565b600081905092915050565b50565b6000612641600083612626565b915061264c82612631565b600082019050919050565b600061266282612634565b9150819050919050565b7f4661696c656420746f2073656e642045544820746f2073656c6c657200000000600082015250565b60006126a2601c83611eab565b91506126ad8261266c565b602082019050919050565b600060208201905081810360008301526126d181612695565b9050919050565b60006040820190506126ed6000830185611d6d565b6126fa6020830184611d6d565b9392505050565b7f4e6f7420656e6f75676820746f6b656e7320617070726f76656420666f72207360008201527f616c650000000000000000000000000000000000000000000000000000000000602082015250565b600061275d602383611eab565b915061276882612701565b604082019050919050565b6000602082019050818103600083015261278c81612750565b9050919050565b7f4e6f7420656e6f75676820746f6b656e7320696e20796f75722077616c6c6574600082015250565b60006127c9602083611eab565b91506127d482612793565b602082019050919050565b600060208201905081810360008301526127f8816127bc565b9050919050565b7f496e76616c696420746f6b656e20616464726573730000000000000000000000600082015250565b6000612835601583611eab565b9150612840826127ff565b602082019050919050565b6000602082019050818103600083015261286481612828565b9050919050565b7f5072696365206d7573742062652067726561746572207468616e203000000000600082015250565b60006128a1601c83611eab565b91506128ac8261286b565b602082019050919050565b600060208201905081810360008301526128d081612894565b9050919050565b600081519050919050565b60005b838110156129005780820151818401526020810190506128e5565b60008484015250505050565b6000601f19601f8301169050919050565b6000612928826128d7565b6129328185611eab565b93506129428185602086016128e2565b61294b8161290c565b840191505092915050565b60006040820190508181036000830152612970818561291d565b905061297f6020830184611d6d565b9392505050565b600060208201905081810360008301526129a0818461291d565b905092915050565b7f4e487b7100000000000000000000000000000000000000000000000000000000600052605160045260246000fdfe436865636b696e672073656c6c65722062616c616e636520616e6420616c6c6f77616e6365206265666f7265207472616e7366657246726f6d3a436f6e747261637420627579546f6b656e73202d204c697374696e6720757064617465642e2052656d61696e696e6720617661696c61626c653a436f6e747261637420627579546f6b656e73202d204554482073656e7420746f2073656c6c6572207375636365737366756c6c792e5761726e696e673a204661696c656420746f20726566756e64206578636573732045544820746f2062757965722e436f6e747261637420627579546f6b656e73202d204c697374696e672064656163746976617465642028736f6c64206f7574292e436f6e747261637420627579546f6b656e73202d205265636569766564206d73672e76616c75652028574549293a436f6e747261637420627579546f6b656e73202d204c697374696e672050726963652f546f6b656e2028574549293a436f6e747261637420627579546f6b656e73202d20546f6b656e20446563696d616c733a436f6e747261637420627579546f6b656e73202d20546f6b656e207472616e73666572207375636365737366756c2e436f6e747261637420627579546f6b656e73202d20416d6f756e742028536d616c6c65737420556e697473293a436f6e747261637420627579546f6b656e73202d2043616c63756c6174656420546f74616c2050726963652028574549293a436f6e747261637420627579546f6b656e73202d20526566756e64696e6720657863657373204554483aa2646970667358221220225a2cbea79b5c688cbac97f7c9baeb34f7da35d90084acc2776a5714a5b6e3664736f6c63430008150033",
    "linkReferences": {},
    "deployedLinkReferences": {}
}